S014000053414D4537305F464F4E54532E737265639A
S214400000B82840209D2740004D2840004D284000FD
S2144000104D2840004D2840004D284000000000007C
S2144000200000000000000000000000004D284000D6
S2144000304D284000000000004D2840004D2840005C
S2144000404D2840004D2840004D2840004D28400097
S2144000504D2840004D2840004D2840004D28400087
S2144000604D284000000000009D234000B52340007E
S214400070CD2340004D2840004D2840004D284000EC
S214400080E5234000FD2340004D2840004D28400019
S2144000904D2840004D2840004D2840004D28400047
S2144000A04D2840004D2840004D2840004D28400037
S2144000B04D2840004D2840004D2840004D28400027
S2144000C04D2840004D2840004D2840004D28400017
S2144000D04D2840004D2840004D2840004D28400007
S2144000E04D2840004D2840004D2840004D284000F7
S2144000F04D2840004D2840004D2840004D284000E7
S2144001004D2840004D2840004D2840004D284000D6
S2144001104D284000000000000000000000000000E5
S2144001204D2840004D2840004D2840004D284000B6
S2144001304D2840004D2840004D2840004D284000A6
S2144001404D2840004D2840004D2840004D28400096
S2144001504D2840004D2840004D2840004D28400086
S2144001604D2840004D28400010B5054C237833B943
S214400170044B13B10448AFF300800123237010BD35
S214400180340440200000000070A344000C4B43B1F0
S2144001900C480D4910B5AFF300800C48036823B9EE
S2144001A010BD0A48036833B97047094B002BF7D097
S2144001B0BDE810401847064B002BF5D0184700BF47
S2144001C00000000070A344003804402070A34400A0
S2144001D00000000098B500AF0D4B4FF4A0721A60B7
S2144001E00B4B4FF4F0725A60094B0A4A9A60084B20
S2144001F0084ADA600648084B984740F2DF1340F258
S2144002003F1200210020054CA04700BF98BD00BF0C
S21440021080084020FCFCFC00010C40004D0E4000D5
S21440022090B58BB002AFF860B9607A603B60BB684F
S214400230FB612EE0FB691B78FB76FB7EFA68127A40
S2144002409B1A7B61FB685B7AFA7E9A421ED8FB68F3
S2144002505A687B69DB0013443B61786839683B69C0
S2144002605B685B681A463B695B689B681C463B69F3
S2144002705B681B68009323460A4CA0473B695B6853
S2144002805A683B6B13447A6813447B60FB690133BE
S214400290FB61FB691B78002BCCD100BF2437BD46E1
S2144002A090BD00BF290F400090B583B002AF134BFE
S2144002B09847134B9847134B984701230093322394
S2144002C0322211491148124CA0470123009364235F
S2144002D03222104910480E4CA04702230093C823F0
S2144002E032220E490E480A4CA0474FF000624FF0AB
S2144002F020510C480C4B9847F7E700BF8D1B400039
S214400300C9164000D501400028A34400E84F4000ED
S2144003102102400030A344006018430040A344003C
S2144003201CA3440000140E405D1D400080B483B002
S21440033000AF78607B68072B25D801A252F823F0DF
S21440034061034000670340006D03400073034000B4
S214400350770340007B0340007F0340008303400058
S2144003604FF4FA4310E04FF400430DE04FF40043DF
S2144003700AE0084B08E0084B06E0084B04E0074B51
S21440038002E0064B00E0002318460C37BD465DF8F9
S214400390047B704700093D0000127A00001BB7003E
S2144003A080B500AF0620054B9847024613469B0093
S2144003B013449A001344184680BD00BF2D034000E6
S2144003C080B500AF024B984703465B08184680BD91
S2144003D0A103400080B483B000AF78607B68802281
S2144003E01A6000BF0C37BD465DF8047B704780B48A
S2144003F083B000AF78607B685B6843F001027B683F
S2144004005A6000BF0C37BD465DF8047B704780B429
S21440041083B000AF78607B685B6823F002027B683D
S2144004205A6000BF0C37BD465DF8047B704780B409
S21440043083B000AF78607B685B6823F004027B681B
S2144004405A6000BF0C37BD465DF8047B704780B4E9
S21440045083B000AF78607B685B6803F00403002BD2
S21440046001D0012300E0002318460C37BD465DF856
S214400470047B704780B483B000AF78607B685B686D
S21440048043F010027B685A6000BF0C37BD465DF8EB
S214400490047B704780B483B000AF78607B685B684D
S2144004A023F080027B685A6000BF0C37BD465DF87B
S2144004B0047B704780B483B000AF78600B467B8087
S2144004C07A887B68DA6000BF0C37BD465DF8047BEF
S2144004D0704780B483B000AF78607B689B689BB2FF
S2144004E018460C37BD465DF8047B704780B483B031
S2144004F000AF78607B681B6903F00203002B01D0D5
S214400500012300E0002318460C37BD465DF8047B07
S214400510704780B483B000AF78607B681A6940F259
S2144005200123134040F20122934201D1012300E00F
S214400530002318460C37BD465DF8047B7047000024
S21440054080B582B000AF78600B46FB70FB789BB2FC
S21440055019467868024B984700BF0837BD4680BDAD
S214400560B504400080B582B000AF786039607868E6
S214400570044B98470346DAB23B681A7000BF083708
S214400580BD4680BDD304400080B582B000AF7860E1
S2144005907868104B984778680F4B984778680F4BA9
S2144005A0984778680E4B984778680E4B98470021D6
S2144005B078680D4B984778680C4B984778680C4B92
S2144005C09847002178680B4B984700BF0837BD46D0
S2144005D080BD00BF21104000D5034000EF0340001F
S2144005E075044000950440005D1040000F04400034
S2144005F02F0440009110400090B587B000AFF860DF
S214400600B9603B601346FB71204B9847034619463A
S21440061038681F4B98470346FB82BB68196800231F
S2144006200022F8681B4CA047BB681B680822194686
S214400630F868194B9847BB681B68FA8AD2B21946C5
S214400640F868164B9847BB681B6808221946F86836
S214400650134B9847BB681968FB795B08DBB21A46B0
S214400660F868104B9847BB681968FB7903F001039C
S214400670002B0CBF01230023DBB21A46F8680A4B56
S214400680984700BF1C37BD4690BD00BFC103400021
S214400690D11240006B134000871240000D134000FB
S2144006A0E1114000411140009111400080B582B0F8
S2144006B000AF786039607868104B98470346002B47
S2144006C00AD03B681B680F2B14D83B681B6819463A
S2144006D078680B4B98470DE03B681B68032B09D89E
S2144006E03B681B68012202FA03F3DB43194678682D
S2144006F0034B984700BF0837BD4680BD4F044000B7
S2144007005D10400080B588B000AFF860B9607A6090
S21440071043F69823FB610023BB6121E043F6982310
S214400720FB6107E0FB695A1EFA61002B02D16FF0AD
S214400730020319E0F8680E4B98470346002BF1D0A9
S214400740BA68BB6913441B78FB75FB7D1946F8688D
S214400750084B9847BB690133BB617B68013B7B60B4
S2144007607B68002BDAD1002318462037BD4680BD73
S214400770ED0440004105400080B588B000AFF86009
S214400780B9607A6043F69823FB610023BB6138E08A
S21440079043F69823FB6107E0FB695A1EFA61002B7B
S2144007A002D16FF0020330E0F8681A4B98470346D0
S2144007B0002BF1D0FF21F868174B984743F6982353
S2144007C0FB6107E0FB695A1EFA61002B02D16FF00D
S2144007D002031AE0F868114B98470346002BF1D005
S2144007E007F117031946F8680D4B9847BA68BB6976
S2144007F01344FA7D1A70BB690133BB617B68013BC9
S2144008007B607B68002BC3D1002318462037BD464B
S21440081080BD00BFED044000410540001305400088
S2144008206505400080B483B000AF78607B680122E5
S2144008301A6000BF0C37BD465DF8047B704780B435
S21440084083B000AF786039607B683A685A6100BF11
S2144008500C37BD465DF8047B7047000090B583B00A
S21440086000AF06200A4B9847002303222C21094854
S214400870094CA04700237B6002E07B6801337B6025
S2144008807B68FE2BF9D900BF0C37BD4690BD00BF34
S214400890E120400000800040C110400080B584B098
S2144008A000AF786039600620094B98473A68796807
S2144008B00848094B98470023FB6002E0FB68013379
S2144008C0FB60FB68FE2BF9D900BF1037BD4680BDE4
S2144008D0B1204000008000400507400090B587B03A
S2144008E000AF0346B9607A60FB730620144B984706
S2144008F0FB7B99B2002303221248134CA0470023E7
S2144009007B6102E07B6901337B617B69FE2BF9D911
S2144009107B68002B10D006200C4B98477A68B96845
S21440092008480B4B984700237B6102E07B69013304
S2144009307B617B695E2BF9D900BF1C37BD4690BDF5
S214400940E120400000800040C1104000B12040003F
S2144009500507400080B584B000AF0023BB6081230C
S214400960BB7000237B700323FB6048E0BB1C012266
S2144009701946FB20264B9847BB780133DBB2BB7049
S21440098000237B6002E07B6801337B607B68FE2B44
S214400990F9D900220021D3201D4B984706201D4B35
S2144009A09847FB1C012219461B481C4B98470023BE
S2144009B07B6002E07B6801337B607B68FE2BF9D965
S2144009C0FB781A46FB68013BDB0002FA03F31A4643
S2144009D0BB681343BB607B1C01221946FB200C4BB3
S2144009E0984700237B6002E07B6801337B607B682E
S2144009F040F6FE729342F7D9FB68013BFB60FB680A
S214400A00002BB3D1BB6818461037BD4680BD00BF2B
S214400A10DD084000B12040000080004079074000DB
S214400A2080B485B000AF78600023FB600CE0002304
S214400A30FB6002E0FB680133FB60FB68074A9342B9
S214400A40F8D9FB680133FB60FA687B689A42EED3BC
S214400A5000BF1437BD465DF8047B70479F86010093
S214400A6080B487B000AFF860B9607A603B60FB68DE
S214400A701B68B3F5A07F03D3FB6840F23F121A60B1
S214400A807B681B68B3F5A07F03D37B6840F23F12B8
S214400A901A60BB681B68B3F5F07F03D3BB6840F2AF
S214400AA0DF121A603B681B68B3F5F07F03D33B68E0
S214400AB040F2DF121A60FB681A687B681B689A422D
S214400AC009D9FB681B687B617B681A68FB681A60FB
S214400AD07B687A691A60BB681A683B681B689A42EA
S214400AE009D9BB681B687B613B681A68BB681A609B
S214400AF03B687A691A6000BF1C37BD465DF8047BC8
S214400B007047000080B584B000AF0346FB71FB79A8
S214400B10002B02D0E823FB7301E04823FB7307F168
S214400B200F03012219463620024B984700BF103764
S214400B30BD4680BDDD08400090B587B000AF044696
S214400B40084611461A462346FB800346BB800B46A2
S214400B507B8013463B8000237B6104237B61FB88BC
S214400B607B827A88FB8813449BB2013B9BB23B82D4
S214400B70BB88FB813A88BB8813449BB2013B9BB23F
S214400B80BB8107F112035B783B7207F112031B78B7
S214400B907B7207F110035B78BB7207F110031B787A
S214400BA0FB7207F108037A6919462A20134B9847C7
S214400BB0002200210020114B984707F10E035B7876
S214400BC03B7207F10E031B787B7207F10C035B78D0
S214400BD0BB7207F10C031B78FB7207F108037A69B6
S214400BE019462B20054B9847002200210020034B36
S214400BF0984700BF1C37BD4690BD00BFDD0840008B
S214400C0090B589B002AF78600323FB604348444BFD
S214400C10984707F10C0100230093424B03223F48BC
S214400C20414CA047002203213C48404B984707F1DF
S214400C300C03194639483E4B984738483D4B984731
S214400C40012136483C4B98470022002101203B4B6F
S214400C509847C8203A4B9847002200211120374B2E
S214400C609847C820364B9847364B984778617B69FB
S214400C7049F28842934201D001234AE04823FB745C
S214400C8007F113030122194636202C4B984764205F
S214400C902B4B98470423FB7407F113030122194694
S214400CA0CF20264B98476420254B98470623FB7455
S214400CB007F11303012219463A20204B9847642037
S214400CC01F4B98470022002113201C4B9847642056
S214400CD01B4B98471C4B98476420194B984700205D
S214400CE01A4B98476420164B98477B681B689AB205
S214400CF07B685B689BB200210020154CA0477B6850
S214400D009B681846134B984700210020124B984783
S214400D10002318461C37BD4690BD00BF00800040EB
S214400D2089054000002D3101F9054000E1114000E1
S214400D30AD064000250840003F084000DD08400062
S214400D40210A4000550940005D0D4000050B40005B
S214400D50390B4000750D4000C90D400080B500AF0E
S214400D60002200212920024B984700BF80BD00BFCB
S214400D70DD08400080B485B000AF78600023FB609B
S214400D8016E0FB685A1CFA607A68120CD1B20D4A1B
S214400D90D154FB685A1CFA607A68120AD1B2094AE2
S214400DA0D154FB685A1CFA607A68D1B2054AD154CD
S214400DB0FB68B3F5707FE4D300BF1437BD465DF8DB
S214400DC0047B70475004402080B584B000AF034693
S214400DD00A46FB801346BB800023FB600423FB606F
S214400DE0BB1D5B783B72BB1D1B787B72BB1D5B7863
S214400DF0BB72BB1D1B78FB7207F10803FA681946E5
S214400E002A20114B98470022002100200E4B98477D
S214400E103B1D5B783B723B1D1B787B723B1D5B78B2
S214400E20BB723B1D1B78FB7207F10803FA68194634
S214400E302B20054B9847002200210020024B984764
S214400E4000BF1037BD4680BDDD08400090B587B076
S214400E5000AFF860B9607A603B603B463A1D07F1E8
S214400E60080107F10C002A4CA047FB6898B2BB6803
S214400E7099B27B689AB2FB689BB2D31A9BB2013395
S214400E809CB23B689AB2BB689BB2D31A9BB2013302
S214400E909BB222461F4CA0471F4B98477A68FB6878
S214400EA0D31A01333968BA688A1A013202FB03F34F
S214400EB03B613B69194AA2FB03231B0A7B6104E0A2
S214400EC04FF470711648174B98477B695A1E7A61E3
S214400ED0002BF5D13969114BA3FB01231A0A13469F
S214400EE09B0013449B01CA1A13465B0013441946E1
S214400EF00B480C4B98474FF4F0734FF4A072002108
S214400F000020044CA04700BF1C37BD4690BD00BF24
S214400F10610A4000390B40005D084000CDCCCCCC87
S214400F20500440209D08400090B58BB000AFF8605C
S214400F30B9607A603B60FB683B62BB68FB61FA68FD
S214400F407B681344013BBB61BA683B681344013B72
S214400F507B6107F1140307F1180207F11C0107F142
S214400F6020001B4CA0473B6A98B2FB6999B2BB690C
S214400F709AB23B6A9BB2D31A9BB201339CB27B694E
S214400F809AB2FB699BB2D31A9BB201339BB22246FC
S214400F90104CA047BA693B6AD31A7969FA698A1A2B
S214400FA002FB03F37B627A6A13465B0013441A46DD
S214400FB0B96B2C20084B98474FF4F0734FF4A0724F
S214400FC000210020034CA04700BF2C37BD4690BDF3
S214400FD0610A4000390B4000DD08400080B483B011
S214400FE000AF78607B685B6803F00203002B01D09B
S214400FF0012300E0002318460C37BD465DF8047B0D
S2144010007047000080B582B000AF78607868034BC8
S214401010984700BF0837BD4680BD00BFD926400070
S21440102080B582B000AF78607B68094A934203D1AE
S2144010301520084B984706E07B68074A934202D142
S2144010402A20044B984700BF0837BD4680BD00BFE6
S21440105000800040051040000080054080B483B00A
S21440106000AF786039607B685B6823F470227B68E9
S2144010705A607B685A683B681B0403F470231A4323
S2144010807B685A6000BF0C37BD465DF8047B7047EE
S21440109080B483B000AF786039607B685B6823F0CB
S2144010A07F427B685A607B685A683B681B061A43D7
S2144010B07B685A6000BF0C37BD465DF8047B7047BE
S2144010C080B584B000AF7860084611461A4603469D
S2144010D07B800B467B7013463B7043F69823FB6041
S2144010E006E0FB685A1EFA60002B01D1012320E07F
S2144010F07B681B6903F00203002BF2D078680F4B25
S21440110098470346002B0ED07A887B781B0403F45E
S21440111070231343BB603B78002B06D0BB6843F07C
S2144011208073BB6001E07B88BB607B68BA68DA602E
S214401130002318461037BD4680BD00BFDD0F400077
S21440114080B485B000AFF860B9607A607B68002BE9
S2144011500CD0FB68BA680C3253F8223043F00101D9
S214401160FB68BA680C3243F822100BE0FB68BA689A
S2144011700C3253F8223023F00101FB68BA680C3277
S21440118043F8221000BF1437BD465DF8047B704715
S21440119080B485B000AFF860B9607A607B68002B99
S2144011A00CD0FB68BA680C3253F8223043F0020188
S2144011B0FB68BA680C3243F822100BE0FB68BA684A
S2144011C00C3253F8223023F00201FB68BA680C3226
S2144011D043F8221000BF1437BD465DF8047B7047C5
S2144011E080B485B000AFF860B9607A607B68042B45
S2144011F018D1FB68BA680C3253F8223023F0080145
S214401200FB68BA680C3243F82210FB68BA680C32A6
S21440121053F8223043F00401FB68BA680C3243F8B6
S21440122022102AE07B68002B18D1FB68BA680C3283
S21440123053F8223023F00801FB68BA680C3243F8B2
S2144012402210FB68BA680C3253F8223023F00401AF
S214401250FB68BA680C3243F822100EE07B68082B15
S2144012600BD1FB68BA680C3253F8223043F00801C1
S214401270FB68BA680C3243F8221000BF1437BD46EC
S2144012805DF8047B704780B485B000AFF860B96005
S2144012907A60FB68BA680C3253F8223023F0F001CB
S2144012A0FB68BA680C3243F82210FB68BA680C3206
S2144012B053F822207B6842EA0301FB68BA680C3286
S2144012C043F8221000BF1437BD465DF8047B7047D4
S2144012D080B485B000AF786039603A687B68134464
S2144012E05A1E7B68B2FBF3F3FB60FB68002B02DD03
S2144012F0FB68FF2B02DD4FF0FF3301E0FB681BB2BB
S21440130018461437BD465DF8047B704780B485B0F8
S21440131000AFF860B9601346FB71FB79002B02D131
S2144013204FF0FF331BE0FB68BA680C3253F82230AC
S21440133023F47F41FB68BA680C3243F82210FB68FE
S214401340BA680C3253F82220FB791B029BB242EA61
S2144013500301FB68BA680C3243F822100023184693
S2144013601437BD465DF8047B704780B485B000AF47
S214401370F860B96011461A460B46FB711346BB71BE
S214401380FB68BA680C3253F8223099B2FB68BA68E8
S2144013900C3243F82210FB68BA680C3253F822200D
S2144013A0FB791B0403F47F03B97909060B4342EA31
S2144013B00301FB68BA680C3243F8221000BF1437AA
S2144013C0BD465DF8047B704780B582B000AF78605C
S2144013D07B68072B31D801A252F823F0391440001D
S2144013E0FD134000051440000D1440001514400045
S2144013F01D144000251440002F1440000020114BBF
S21440140098471AE001200F4B984716E000200E4BF5
S214401410984712E010200C4B98470EE020200A4BCD
S21440142098470AE03E210020084B984705E03E21B9
S2144014300120064B984700E000BF00BF0837BD4676
S21440144080BD00BF1525400081254000F1254000A5
S21440145080B582B000AF78607B68072B26D801A2A3
S21440146052F823F085144000891440008914400047
S2144014709B1440009B1440009B1440009B1440006B
S2144014809B144000012312E00B4B98470346002B69
S21440149014BF01230023DBB209E0084B98470346FC
S2144014A0002B14BF01230023DBB200E000231846C4
S2144014B00837BD4680BD00BF4D2540006926400028
S2144014C080B483B000AF78607B68072B25D801A234
S2144014D052F823F0F5144000FB144000011540007C
S2144014E0071540000B1540000F154000131540002F
S2144014F0171540004FF4FA4310E04FF400430DE058
S2144015004FF400430AE0084B08E0084B06E0084B5F
S21440151004E0074B02E0064B00E0002318460C3779
S214401520BD465DF8047B704700093D0000127A0016
S214401530001BB70080B582B000AF0346FB7100BF0A
S214401540FB791846054B9847034683F00103DBB208
S214401550002BF5D100BF0837BD4680BD5114400072
S21440156080B586B000AFF8607A603B600B46FB7291
S2144015707B68002B07D13B68002B04D1FB684FF4F7
S21440158070021A6019E0FB7A18460E4B98470246DE
S2144015907B68B2FBF3F37B617B693A6802FB03F33B
S2144015A07B613B68013B1A04074B13407A68D2B212
S2144015B0134343F47C52FB681A6000BF1837BD469D
S2144015C080BD00BFC11440000000FF0780B582B058
S2144015D000AF786039603B68002B08D1094B9847CC
S2144015E0094A7B681B6843F00053936205E0064A4D
S2144015F07B681B6843F48033D36100BF0837BD4621
S21440160080BD00BF8526400000060E4080B582B0F3
S21440161000AF78607B68002B03D1054B98470346A4
S21440162002E0044B9847034618460837BD4680BD3F
S214401630A1264000BD26400080B582B000AF0346DC
S214401640FB71FB79033B042B08D8FB791846064B05
S2144016509847FB791846054B984700E000BF00BF07
S2144016600837BD4680BD00BFC91340003515400051
S21440167080B582B000AF786000BF7868044B98476A
S2144016800346002BF9D0002318460837BD4680BDD8
S2144016900D16400080B500AF0620054B9847024621
S2144016A013469B0013449A001344184680BD00BF5F
S2144016B0C114400080B500AF024B98470346184619
S2144016C080BD00BF9516400090B583B000AF13486C
S2144016D0134B98470620134B9847381D1923012271
S2144016E00621114CA0473B1D002118460F4B98473A
S2144016F000200F4B984702200E4B984700200E4B79
S21440170098470E4B98470E4B984703461846044B4F
S214401710984700BF0C37BD4690BD00BF000E270758
S214401720BD2940003916400061154000CD154000E7
S2144017307116400015244000912440005528400072
S214401740B516400080B400AFBFF34F8FBFF36F8F26
S214401750094B0022C3F85022074A074B5B6943F403
S21440176000335361BFF34F8FBFF36F8F00BFBD464B
S2144017705DF8047B704700BF00ED00E080B48BB09E
S21440178000AF264BD3F88030FB61FB695B0BC3F39D
S2144017900E037B62FB6903F007030433BB61FB69FE
S2144017A0DB08C3F309037B617B69BB60BB68B3FAA4
S2144017B083F37B607B68DBB203F01F033B61BFF3C0
S2144017C04F8F7B693B623A6A3B6902FA03F31946DC
S2144017D07A6ABB6902FA03F30B43FB600F4AFB6865
S2144017E0C2F860323B6A5A1E3A62002BEBD17B6AE3
S2144017F05A1E7A62002BE4D1BFF34F8F074A074B3D
S2144018005B6943F480335361BFF34F8FBFF36F8FF1
S21440181000BF2C37BD465DF8047B704700ED00E006
S21440182080B582B000AF78607868034B984700BFB9
S2144018300837BD4680BD00BFD926400080B500AF02
S2144018400A20084B98470B20064B98470C20054B20
S21440185098471020034B98471120024B984700BFEB
S21440186080BD00BF2118400080B48DB000AF7860C6
S21440187039607B68FB623B68BB62FB6A7B627B6A63
S2144018805A09FB6A3B623B6A03F01F03012101FAD7
S21440189003F3FA61BB61BB6A7B61FB693B613A69F2
S2144018A0374B13445B02FB607B6903F00803002B55
S2144018B003D0FB68BA695A6602E0FB68BA691A66E2
S2144018C07B6903F01003002B04D0FB68BA69C3F8A9
S2144018D0942003E0FB68BA69C3F890207B6903F064
S2144018E02003002B03D0FB68BA691A6502E0FB6848
S2144018F0BA695A657B6903F0C003002B03D0FB68C6
S214401900BA691A6202E0FB68BA695A627B6903F0F8
S2144019108003002B04D0FB68BA69C3F8842003E038
S214401920FB68BA69C3F880207B6903F00103002B8B
S21440193006D0FB681A6FBB691A43FB681A6706E055
S214401940FB681A6FBB69DB431A40FB681A677B6902
S21440195003F00203002B06D0FB685A6FBB691A439C
S214401960FB685A6706E0FB685A6FBB69DB431A4060
S214401970FB685A6700BF3437BD465DF8047B704746
S2144019800707200080B48DB000AF78600B46FB7030
S2144019907B68FB62FB7887F82B30FB6A7B627B6A4E
S2144019A03B623B6A5B09FB61FA69174B13445B0277
S2144019B0BB6197F82B30012B09D1FB6A7B617B69B1
S2144019C003F01F0301229A40BB691A610CE097F8A6
S2144019D02B30002B08D1FB6A3B613B6903F01F03A9
S2144019E001229A40BB695A61FB6AFB60FB6803F0C0
S2144019F01F0301229A40BB69C3F8A02000BF3437BA
S214401A00BD465DF8047B70470707200080B48BB066
S214401A1000AF78600B46FB707B687B62FB7887F88C
S214401A2023307B6AFB61FB69BB61BB695B097B61F9
S214401A307A69104B13445B023B6197F82330002BC6
S214401A4009D07B6AFB60FB6803F01F0301229A40C3
S214401A503B691A6308E07B6ABB60BB6803F01F0300
S214401A6001229A403B695A6300BF2C37BD465DF859
S214401A70047B70470707200080B48DB000AF7860C5
S214401A800B46FB707B68FB62FB7887F82B30FB6A63
S214401A907B627B6A5A09FB6A3B623B6A03F01F0320
S214401AA0012101FA03F3FA61BB6197F82B30FB750D
S214401AB0FB693B613A69234B13445B02FB60FB7D49
S214401AC0013B032B2ED801A252F823F0011B400005
S214401AD0131B4000DD1A4000EF1A4000FB68BA694D
S214401AE0C3F8C420FB68BA69C3F8D0201FE0FB687F
S214401AF0BA69C3F8C420FB68BA69C3F8D42016E0B4
S214401B00FB68BA69C3F8C020FB68BA69C3F8D0203E
S214401B100DE0FB68BA69C3F8C020FB68BA69C3F831
S214401B20D42004E0FB68BA69C3F8B42003E0FB683D
S214401B30BA69C3F8B02000BF3437BD465DF8047BB1
S214401B40704700BF0707200080B400AFBFF34F8F39
S214401B50BFF36F8F0C4A0C4BD3F8903223F001033F
S214401B60C2F89032084A084BD3F8943223F0010367
S214401B70C2F89432BFF34F8FBFF36F8F00BFBD469E
S214401B805DF8047B704700BF00ED00E098B500AFFD
S214401B904C4B4FF400425A604B4B98474B4B984740
S214401BA04B4B4C4A5A604A4B4B4A5A604B4B9847B1
S214401BB04B4B9847012148204A4B984701214820E3
S214401BC0494B984700210B20464B984788210B20CD
S214401BD0464B984702210B20454B984700234FF42D
S214401BE000524FF060514348434CA04700234FF00B
S214401BF080424FF060513F483F4CA0470123FF22B0
S214401C004FF000613B483C4CA04701233F224FF039
S214401C1000613A48384CA04701234FF4C0324FF099
S214401C2000613748344CA04701234FF480724FF090
S214401C3000613048304CA04701234FF400624FF01B
S214401C4000612C482C4CA04701234FF400224FF053
S214401C5000612C48284CA04700234FF400724FF0F8
S214401C6080512448244CA0474FF400712148264B0D
S214401C7098474FF080517420244B98474FF080513E
S214401C807520224B98474FF0805176201F4B98473F
S214401C904FF080517B201D4B98474FF060511820E5
S214401CA01A4B98474FF060510620184B98474FF014
S214401CB060515320154B98475320154B984700BF0B
S214401CC098BD00BF50180E40451740007D17400095
S214401CD0000C0E400C08005A0C07005A491B4000E6
S214401CE03D184000851940000D1A40006918400014
S214401CF0791A400000120E40991F400000160E4010
S214401D00000E0E4000140E40411D400011214000C0
S214401D10B120400080B485B000AFF860B9607A600A
S214401D207B68002B03D0FB68BA685A6602E0FB6803
S214401D30BA681A6600BF1437BD465DF8047B704724
S214401D4080B483B000AF786039607B683A681A63C5
S214401D5000BF0C37BD465DF8047B704780B487B043
S214401D6000AFF860B9607A60BB68B3F1405F03D0FB
S214401D70BB68B3F1605F03D1FB689B6B7B6102E09D
S214401D80FB68DB6B7B617A697B681340002B01D173
S214401D90002300E0012318461C37BD465DF8047B4F
S214401DA0704780B487B000AFF860B9607A60FB686F
S214401DB07A685A64BB68B3F1C05F4AD0B3F1C05F7B
S214401DC008D8B3F1006F16D0B3F1805F2CD0002B4B
S214401DD069D064E0B3F1205F65D0B3F1205F03D8EB
S214401DE0B3F1005F4AD05AE0B3F1405F5BD0B3F145
S214401DF0605F58D053E0FB681B6F7B61FB681A6FCF
S214401E007B68D9437B690B401A40FB681A67FB68BE
S214401E105B6F7B61FB685A6F7B68D9437B690B407D
S214401E201A40FB685A673AE0FB681B6F7B617A682A
S214401E307B691A43FB681A67FB685B6F7B61FB68CC
S214401E405A6F7B68D9437B690B401A40FB685A67D8
S214401E5025E0FB681B6F7B61FB681A6F7B68D94384
S214401E607B690B401A40FB681A67FB685B6F7B61B7
S214401E707A687B691A43FB685A6710E0FB681B6FF9
S214401E807B617A687B691A43FB681A67FB685B6FFD
S214401E907B617A687B691A43FB685A6700BFFB68B8
S214401EA07A685A6000E000BF1C37BD465DF8047B88
S214401EB07047000080B584B000AFF860B9607A60C3
S214401EC0B968F868194B98477B6803F001031A46CF
S214401ED0B968F868164B98477B6803F00A03002BEE
S214401EE003D0FB68BA681A6202E0FB68BA685A62B6
S214401EF07B6803F00203002B04D0FB68BA68C3F883
S214401F00802008E07B6803F00803002B03D0FB68C2
S214401F10BA68C3F88420FB68BA685A61FB68BA6836
S214401F201A6000BF1037BD4680BD00BF6520400028
S214401F30151D400080B584B000AFF860B9607A6087
S214401F403B60B968F868124B9847BA69B968F86850
S214401F50104B98473B68002B03D0FB68BA681A655D
S214401F6002E0FB68BA685A657B68002B03D0FB68C2
S214401F70BA681A6302E0FB68BA685A63FB68BA68D4
S214401F801A61FB68BA681A6000BF1037BD4680BD4C
S214401F9065204000151D400090B587B002AFF86040
S214401FA0B9607A603B60BB68B3F1005F16D0B3F1AE
S214401FB0005F09D8B3F1805F10D0B3F1C05F0DD099
S214401FC0B3F1006F0AD03DE0B3F1405F1AD0B3F1F1
S214401FD0605F17D0B3F1205F0ED033E07A68B968FF
S214401FE0F8681C4B98473B6803F001031A4679682B
S214401FF0F868194B984727E03A687968F868174BAD
S214402000984721E0BB68B3F1605F0CBF0123002313
S214402010DBB21A463B6803F00403002B14BF0123CF
S2144020200023DBB219463B6803F00103002B14BFC4
S21440203001230023DBB200930B467968F868084C0E
S214402040A04701E0002300E0012318461437BD46B0
S21440205090BD00BFA31D4000151D4000B51E4000AA
S214402060351F400080B483B000AF786039607B682D
S2144020703A685A6400BF0C37BD465DF8047B70472B
S21440208080B483B000AF78607B68DB6C18460C3752
S214402090BD465DF8047B704780B483B000AF78607F
S2144020A07B689B6C18460C37BD465DF8047B7047D2
S2144020B080B584B000AF78607868084B9847F86081
S2144020C07B6803F01F03012202FA03F31A46FB68FB
S2144020D01A6300BF1037BD4680BD00BFC122400016
S2144020E080B584B000AF78607868084B9847F86051
S2144020F07B6803F01F03012202FA03F31A46FB68CB
S2144021005A6300BF1037BD4680BD00BFC1224000A5
S21440211090B587B002AF786039607868634B98476F
S214402120F8603B6803F0F043B3F1005F67D0B3F16B
S214402130005F09D8B3F1805F2BD0B3F1C05F43D0C6
S214402140B3F1006F0AD0A9E0B3F1405F7ED0B3F19F
S214402150605F7BD0B3F1205F6CD09FE07B6803F07C
S2144021601F03012202FA03F31A464FF00061F86893
S2144021704F4B98477B6803F01F03012202FA03F394
S21440218019463B6803F001031A46F868494B9847DE
S21440219086E07B6803F01F03012202FA03F31A4627
S2144021A04FF08051F868424B98477B6803F01F0316
S2144021B0012202FA03F319463B6803F001031A466C
S2144021C0F8683C4B98476BE07B6803F01F0301229E
S2144021D002FA03F31A464FF0C051F868344B98475A
S2144021E07B6803F01F03012202FA03F319463B689B
S2144021F003F001031A46F8682E4B984750E07B6878
S21440220003F01F03012202FA03F31A464FF000516F
S214402210F868274B98477B6803F01F03012202FAB1
S21440222003F319463B6803F001031A46F868214B4E
S214402230984735E07B6803F01F03012202FA03F358
S2144022403A681946F8681C4B984729E07B6803F0C3
S2144022501F03012202FA03F319463B6803F060535A
S214402260B3F1605F0CBF01230023DBB21A463B6824
S21440227003F00403002B14BF01230023DBB21846EF
S2144022803B6803F00103002B14BF01230023DBB29D
S21440229000930346F868094CA04701E0002300E09D
S2144022A0012318461437BD4690BD00BFC1224000EA
S2144022B0A31D4000151D4000B51E4000351F4000C0
S2144022C080B485B000AF78607B685A09054B1344EC
S2144022D05B02FB60FB6818461437BD465DF8047B1E
S2144022E0704700BF0707200080B584B000AF786015
S2144022F039607868264B9847F8607868254B984749
S2144023000246FB681340FB60FB68002B3CD0002372
S214402310BB6034E0204ABB681B0113441A683B6824
S2144023209A4226D11C4ABB681B01134404331A68E0
S214402330FB681340002B1CD0174ABB681B01134494
S2144023400C331B681449BA6812010A4410681249D3
S214402350BA6812010A4404321268114698470E4A77
S214402360BB681B01134404331B68DB43FA68134005
S214402370FB60BB680133BB60BB68062B03D8FB68B9
S214402380002BC7D100E000BF00BF1037BD4680BD60
S21440239081204000992040001008402080B500AFC2
S2144023A00A210248024B984700BF80BD000E0E40EF
S2144023B0E922400080B500AF0B210248024B984707
S2144023C000BF80BD00100E40E922400080B500AF3F
S2144023D00C210248024B984700BF80BD00120E40B9
S2144023E0E922400080B500AF10210248024B9847D2
S2144023F000BF80BD00140E40E922400080B500AF0B
S21440240011210248024B984700BF80BD00160E407F
S214402410E922400080B483B000AF78607B68013B1F
S214402420032B1AD801A252F823F000BF3D244000E7
S214402430432440004B2440005324400000237B604C
S2144024400EE04FF480737B600AE04FF440737B608D
S21440245006E04FF400737B6002E000237B6000BF21
S2144024600A490A4B1B6B23F440727B6813430B6389
S21440247000BF064B9B6E03F00803002BF9D000BF4D
S2144024800C37BD465DF8047B704700BF00060E4023
S21440249080B485B000AF78601D491D4B1B6B23F0A0
S2144024A070027B6813430B634FF48053FB6007E076
S2144024B0FB68002B01D1012323E0FB68013BFB6056
S2144024C0134B9B6E03F00803002BF1D0104A104BC1
S2144024D01B6B23F0030343F0020313634FF4805354
S2144024E0FB6007E0FB68002B01D1012309E0FB6895
S2144024F0013BFB60064B9B6E03F00803002BF1D0BC
S214402500002318461437BD465DF8047B704700BF6D
S21440251000060E4080B483B000AF78607B68012B25
S21440252005D10749064B9A68064B13438B60044B0C
S214402530054A1A6000BF0C37BD465DF8047B7047FD
S21440254010180E40000010A5080000A580B400AF8B
S214402550094B5B6903F08003002B07D0074B9B6E4B
S21440256003F08003002B01D0012300E0002318462F
S214402570BD465DF8047B704710180E4000060E40BE
S21440258080B483B000AF78601549154B1A6A154B76
S21440259013430B6200BF124B9B6E03F40033002BB9
S2144025A0F9D00F490E4B1A6A0F4B13407A68134303
S2144025B043F45C130B6200BF094B9B6E03F400337D
S2144025C0002BF9D00649064B1A6A084B134043F4D1
S2144025D05C130B6200BF0C37BD465DF8047B70474A
S2144025E000060E40080037008FFFC8FFFFFFC8FEFA
S2144025F080B483B000AF786039607B68002B08D029
S2144026001349134B1B6A134A1A40134B13430B626E
S21440261018E00F490E4B1A6A104B13403A681202E4
S21440262092B21A430E4B13430B6200BF084B9B6E8D
S21440263003F00103002BF9D00549054B1A6A094BF4
S21440264013430B6200BF0C37BD465DF8047B7047F2
S21440265000060E40FCFFC8FE02003701FCFFC8FF24
S214402660010037000000370180B400AF044B9B6E7A
S21440267003F480331846BD465DF8047B704700BFC0
S21440268000060E4080B400AF044B4FF000529A62F2
S21440269000BFBD465DF8047B704700BF00060E4095
S2144026A080B400AF044B9B6E03F002031846BD4651
S2144026B05DF8047B704700BF00060E4080B400AF54
S2144026C0044B9B6E03F040031846BD465DF8047B02
S2144026D0704700BF00060E4080B485B000AF7860FB
S2144026E00B4A7B6803F07F03C2F80C31084BD3F8E3
S2144026F00C3143F01023FB60054AFB68C2F80C31EE
S214402700002318461437BD465DF8047B704700BF6B
S21440271000060E4080B483B000AFEFF310837B60BA
S2144027207B68002B0CBF01230023DBB23B6072B6F4
S214402730BFF35F8F044B00221A703B6818460C3775
S214402740BD465DF8047B70470000402080B483B0EF
S21440275000AF78607B68002B14BF01230023DBB2F8
S21440276018460C37BD465DF8047B704780B582B08E
S21440277000AF78607868074B98470346002B05D033
S214402780054B01221A70BFF35F8F62B600BF083751
S214402790BD4680BD4D2740000000402080B584B037
S2144027A000AF1E4BFB601E4BBB60FA68BB689A428C
S2144027B00CD007E0BB681A1DBA60FA68111DF960B4
S2144027C012681A60BB68174A9342F3D3164BBB6035
S2144027D004E0BB681A1DBA6000221A60BB68134A40
S2144027E09342F6D3124BFB60124AFB6823F07F03FA
S2144027F09360114B98477860104A104B1B6843F41F
S21440280070031360BFF34F8FBFF36F8F78680C4B26
S21440281098470C4B98470C4B9847FEE770A34400EC
S214402820000040203404402034044020B4084020B7
S2144028300000400000ED00E01527400088ED00E075
S2144028406D2740006D2A4000A902400080B400AFCA
S214402850FEE7000080B400AF524B1B6B03F003034F
S214402860012B14D0012B02D3022B38D07AE04E4BEA
S2144028705B6903F08003002B04D04C4B4FF40042BE
S2144028801A606FE0494B4FF4FA421A606AE0454BD3
S2144028901B6A03F08073002B03D0444B444A1A60F3
S2144028A060E0424B434A1A603E4B1B6A03F070039B
S2144028B0102B04D0202B08D0002B0ED00EE03B4B24
S2144028C01B685B00394A136008E0384B1A681346A9
S2144028D05B001344354A136000E000BF42E0314BD2
S2144028E01B6A03F08073002B03D0304B304A1A60CB
S2144028F01CE02E4B2F4A1A602A4B1B6A03F07003CB
S214402900102B04D0202B08D0002B0ED00EE0274BE7
S2144029101B685B00254A136008E0244B1A68134680
S2144029205B001344214A136000E000BF1D4B1B6B45
S21440293003F00303022B14D11A4B9B6A1B0CC3F300
S2144029400A030133194A126802FB03F3174A13605D
S214402950144B9B6ADBB2154A1268B2FBF3F3134A78
S214402960136000BF0F4B1B6B03F07003702B08D136
S2144029700E4B1B68104AA2FB03235B080B4A1360EE
S2144029800AE0084B1B6B1B0903F00703074A126853
S21440299022FA03F3054A136000BFBD465DF8047B88
S2144029A0704700BF00060E4010180E40040040203E
S2144029B0001BB70000093D00ABAAAAAA80B483B0AA
S2144029C000AF78607B681D4A934204D81C4B4FF09A
S2144029D080621A602BE07B681A4A934203D8184BF1
S2144029E0194A1A6023E07B68184A934203D8144B6E
S2144029F0174A1A601BE07B68164A934203D8104B6E
S214402A00154A1A6013E07B68144A934204D80C4B6C
S214402A104FF004221A600AE07B68114A934203D8BA
S214402A20074B104A1A6002E0054B0F4A1A6000BF77
S214402A300C37BD465DF8047B704700BFBFF35E01B0
S214402A40000C0E407FE7BD02000100043FDB1C0483
S214402A5000020004FFCE7B0500030004BFC2DA0676
S214402A607FB63908000500040006000470B50F4E16
S214402A700F4D761BB61018BF002405D0013455F80C
S214402A80043B9847A642F9D10A4E0B4D761B47F0B9
S214402A905DFCB61018BF002406D0013455F8043B40
S214402AA09847A642F9D170BD70BD00BF58A34400F8
S214402AB058A3440060A3440058A34400024B13B1FB
S214402AC0024800F005B8704700000000DD2A4000CC
S214402AD0002301461A46184600F01EB838B50A4C80
S214402AE00A4D641BA4100AD004F18043013B05EB59
S214402AF08305013C55F804399847002CF9D1BDE8C8
S214402B00384047F02DBC00BF70A344006CA344007F
S214402B10704700BF704700BF2DE9F8432C4D06466E
S214402B20286898460F469146FFF7F2FF294B1C68E7
S214402B30D4F84831002B3ED05A681F2A1CDC02F1DC
S214402B40010E76B103EB82010124C1F88890D3F8D8
S214402B50880194402043022EC3F88801C1F80881BA
S214402B6023D00232C3F804E0286843F82270FFF707
S214402B70D1FF0020BDE8F883174B0BB34FF4C87065
S214402B80AFF300800346D8B1D4F848210260002154
S214402B9041600A46C4F848014FF0010EC0F888115B
S214402BA0C0F88C11002EDCD0CCE7D3F88C110C4347
S214402BB0C3F88C41D5E704F5A673C4F84831BBE7A3
S214402BC02868FFF7A7FF4FF0FF30BDE8F88300BF47
S214402BD03004402048A3440000000000FFFFFFFFF1
S214402BE0FFFFFFFFFF000000FFFFFFFFFFFFFFFFAD
S214402BF0FFFFFFFFFFFFFFFFFFFF000000FFFFFF9D
S214402C00000000FFFFFFFFFFFFFFFFFFFFFFFFFF8C
S214402C10FFFF000000FFFFFF000000FFFFFFFFFF79
S214402C20FFFFFFFFFFFFFFFFFFFF000000FFFFFF6C
S214402C30000000FFFFFFFFFFFFFFFFFFFFFFFFFF5C
S214402C40FFFF000000FFFFFF000000FFFFFFFFFF49
S214402C50FFFFFFFFFFFFFF000000FFFFFFFFFFFF3C
S214402C60FFFFFF000000FFFFFFFFFFFFFFFFFF002B
S214402C700000000000000000000000000000FFFF11
S214402C80FFFFFFFFFFFFFF000000FFFFFFFFFFFF0C
S214402C90FFFFFF000000FFFFFFFFFFFF000000FFF9
S214402CA0FFFFFFFFFFFFFFFFFFFFFFFFFFFF0000ED
S214402CB000FFFFFF000000FFFFFFFFFFFFFFFFFFDB
S214402CC0FFFFFFFFFFFF000000FFFFFFFFFFFFFFCC
S214402CD0FFFFFFFFFFFFFFFFFFFFFFFFFFFFFFFFBF
S214402CE0FFFFFFFFFFFFFFFFFFFFFFFFFFFFFFFFAF
S214402CF0FFFFFFFFFFFFFFFFFFFFFFFFFFFFFFFF9F
S214402D00FFFFFFFFFFFFFFFFFFFFFFFFFFFFFFFF8E
S214402D10FFFFFFFFDC2B4000080000000D00000016
S214402D200800000000000000000000000000000056
S214402D30000000FFFFFFFFFFFFFFFFFF000000FF58
S214402D40FFFFFFFFFFFFFFFFFFFFFF000000FFFF4B
S214402D50FFFFFFFF000000FFFFFFFFFFFFFFFFFF3B
S214402D60FFFFFF000000FFFFFFFFFFFF000000FF28
S214402D70FFFFFFFFFFFFFFFFFFFFFF000000FFFF1B
S214402D80FFFFFFFF00000000000000000000000002
S214402D90000000FFFFFFFFFFFFFFFFFF000000FFF8
S214402DA0FFFFFFFFFFFFFFFFFFFFFF000000FFFFEB
S214402DB0FFFFFFFF000000FFFFFFFFFFFFFFFFFFDB
S214402DC0FFFFFFFFFFFF000000FFFFFF000000FFC8
S214402DD0FFFFFFFFFFFFFFFFFFFFFFFFFFFF0000BC
S214402DE000FFFFFF000000FFFFFFFFFFFFFFFFFFAA
S214402DF0FFFFFF000000FFFFFFFFFFFF0000000097
S214402E000000000000000000000000FFFFFFFFFF82
S214402E10FFFFFFFFFFFFFFFFFFFFFFFFFFFFFFFF7D
S214402E20FFFFFFFFFFFFFFFFFFFFFFFFFFFFFFFF6D
S214402E30FFFFFFFFFFFFFFFFFFFFFFFFFFFFFFFF5D
S214402E40FFFFFFFFFFFFFFFFFFFFFFFFFFFFFFFF4D
S214402E50FFFFFFFFFFFFFFFFFFFFFFFF242D4000A8
S214402E60080000000D00000008000000FFFFFFFF04
S214402E70FFFFFFFFFF000000000000000000000012
S214402E8000FFFFFFFFFFFFFFFFFF00000000000006
S214402E90FFFFFFFFFFFFFFFFFFFFFFFF000000FFFA
S214402EA0FFFFFFFFFF000000FFFFFFFFFFFFFFFFEA
S214402EB0FFFFFFFFFFFFFFFFFFFFFFFFFF000000DA
S214402EC0FFFFFFFFFFFFFFFFFFFFFFFFFFFFFFFFCD
S214402ED0FFFFFFFFFFFFFFFF000000FFFFFFFFFFBA
S214402EE0FFFFFFFFFFFFFFFFFFFFFFFFFFFFFFFFAD
S214402EF0FFFFFF000000FFFFFFFFFFFFFFFFFFFF9A
S214402F00FFFFFFFFFFFFFFFFFFFFFFFFFFFF00008A
S214402F1000FFFFFFFFFFFFFFFFFFFFFFFFFFFFFF7B
S214402F20FFFFFFFFFFFFFFFFFFFFFFFF000000FF69
S214402F30FFFFFFFFFFFFFFFFFFFFFFFFFFFFFFFF5C
S214402F40FFFFFFFFFFFFFF000000000000FFFFFF46
S214402F50FFFFFFFFFFFFFFFFFF000000FFFFFFFF39
S214402F60FFFFFFFFFFFFFFFF000000000000000024
S214402F7000000000FFFFFFFFFFFFFFFFFFFFFFFF18
S214402F80FFFFFFFFFFFFFFFFFFFFFFFFFFFFFFFF0C
S214402F90FFFFFFFFFFFFFFFFFFFFFFFFFFFFFFFFFC
S214402FA0FFFFFFFFFFFFFFFFFFFFFFFFFFFFFFFFEC
S214402FB0FFFFFFFFFFFFFFFFFFFFFFFFFFFFFFFFDC
S214402FC0FFFFFFFFFFFFFFFFFFFFFF006C2E4000ED
S214402FD0090000000D00000008000000000000008E
S214402FE00000000000000000000000000000FFFF9E
S214402FF0FFFFFFFFFFFFFFFFFFFF000000FFFFFF99
S214403000FFFFFFFFFFFFFFFFFFFFFFFF0000000087
S2144030100000FFFFFFFFFFFF000000FFFFFFFFFF76
S214403020FFFFFFFFFFFFFFFFFFFFFFFFFF00000068
S214403030FFFFFFFFFFFF000000FFFFFFFFFFFFFF58
S214403040FFFFFFFFFFFFFFFFFFFFFFFFFFFF000049
S21440305000FFFFFF000000FFFFFFFFFFFFFFFFFF37
S214403060FFFFFFFFFFFFFFFFFFFFFFFF000000FF28
S214403070FFFF000000FFFFFFFFFFFFFFFFFFFFFF18
S214403080FFFFFFFFFFFFFFFFFFFF000000FFFFFF08
S214403090000000FFFFFFFFFFFFFFFFFFFFFFFFFFF8
S2144030A0FFFFFFFFFFFFFFFF000000FFFFFF0000E6
S2144030B000FFFFFFFFFFFFFFFFFFFFFFFFFFFFFFDA
S2144030C0FFFFFF000000FFFFFFFFFFFF000000FFC5
S2144030D0FFFFFFFFFFFFFFFFFFFFFFFFFFFF0000B9
S2144030E000000000FFFFFFFFFFFF000000000000A1
S2144030F0000000000000000000000000FFFFFFFF8F
S214403100FFFFFFFFFFFFFFFFFFFFFFFFFFFFFFFF8A
S214403110FFFFFFFFFFFFFFFFFFFFFFFFFFFFFFFF7A
S214403120FFFFFFFFFFFFFFFFFFFFFFFFFFFFFFFF6A
S214403130FFFFFFFFFFFFFFFFFFFFFFFFFFFFFFFF5A
S214403140FFFFFFFFFFFFFFFFFFFFFFFFFFFFFFFF4A
S214403150FFFFFFFFFFFFFFFFFFFFFFFFFFFFFFFF3A
S214403160FFFF0000DC2F40000A0000000D000000BA
S2144031700800000000000000000000000000000002
S214403180000000000000000000FFFFFF000000FFFE
S214403190FFFFFFFFFFFFFFFFFFFFFFFFFFFFFFFFFA
S2144031A0FFFFFFFF000000FFFFFFFFFFFFFFFFFFE7
S2144031B0FFFFFFFFFFFFFFFFFFFFFFFF000000FFD7
S2144031C0FFFFFFFFFFFFFFFFFFFFFFFFFFFFFFFFCA
S2144031D0FFFFFFFF000000000000000000000000AE
S2144031E0000000000000000000FFFFFF000000FF9E
S2144031F0FFFFFFFFFFFFFFFFFFFFFFFFFFFFFFFF9A
S214403200FFFFFFFF000000FFFFFFFFFFFFFFFFFF86
S214403210FFFFFFFFFFFFFFFFFFFFFFFF000000FF76
S214403220FFFFFFFFFFFFFFFFFFFFFFFFFFFFFFFF69
S214403230FFFFFFFF000000FFFFFFFFFFFFFFFFFF56
S214403240FFFFFFFFFFFFFFFFFFFFFFFF0000000045
S2144032500000000000000000000000000000000029
S21440326000FFFFFFFFFFFFFFFFFFFFFFFFFFFFFF28
S214403270FFFFFFFFFFFFFFFFFFFFFFFFFFFFFFFF19
S214403280FFFFFFFFFFFFFFFFFFFFFFFFFFFFFFFF09
S214403290FFFFFFFFFFFFFFFFFFFFFFFFFFFFFFFFF9
S2144032A0FFFFFFFFFFFFFFFFFFFFFFFF7431400000
S2144032B0080000000D0000000800000000000000AC
S2144032C00000000000000000000000000000FFFFBB
S2144032D0FF000000FFFFFFFFFFFFFFFFFFFFFFFFB6
S2144032E0FFFFFFFFFFFF000000FFFFFFFFFFFFFFA6
S2144032F0FFFFFFFFFFFFFFFFFFFFFF000000FFFF96
S214403300FFFFFFFFFFFFFFFFFFFFFFFFFFFFFFFF88
S2144033100000000000000000000000000000000068
S2144033200000FFFFFF000000FFFFFFFFFFFFFFFF63
S214403330FFFFFFFFFFFFFFFFFFFF000000FFFFFF55
S214403340FFFFFFFFFFFFFFFFFFFFFFFFFFFFFF0047
S2144033500000FFFFFFFFFFFFFFFFFFFFFFFFFFFF36
S214403360FFFFFFFF000000FFFFFFFFFFFFFFFFFF25
S214403370FFFFFFFFFFFFFFFFFF000000FFFFFFFF15
S214403380FFFFFFFFFFFFFFFFFFFFFFFFFFFFFFFF08
S214403390FFFFFFFFFFFFFFFFFFFFFFFFFFFFFFFFF8
S2144033A0FFFFFFFFFFFFFFFFFFFFFFFFFFFFFFFFE8
S2144033B0FFFFFFFFFFFFFFFFFFFFFFFFFFFFFFFFD8
S2144033C0FFFFFFFFFFFFFFFFFFFFFFFFFF000000C5
S2144033D0BC324000070000000D000000080000005E
S2144033E0FFFFFFFFFFFFFFFFFF00000000000000A1
S2144033F00000000000FFFFFFFFFFFFFFFFFF000091
S21440340000000000FFFFFFFFFFFFFFFFFFFFFFFF83
S214403410000000FFFFFFFFFFFF000000FFFFFFFF71
S214403420FFFFFFFFFFFFFFFFFFFFFFFFFFFFFFFF67
S214403430FF000000FFFFFFFFFFFFFFFFFFFFFFFF54
S214403440FFFFFFFFFFFFFFFFFFFFFFFF000000FF44
S214403450FFFFFFFFFFFFFFFFFFFFFFFFFFFFFFFF37
S214403460FFFFFFFFFFFFFF000000FFFFFFFFFFFF24
S214403470FFFFFF000000000000000000000000FF0B
S214403480FFFF000000FFFFFFFFFFFFFFFFFFFFFF04
S214403490FFFFFFFFFFFFFF000000FFFFFFFFFFFFF4
S2144034A0000000FFFFFFFFFFFFFFFFFFFFFFFFFFE4
S2144034B0FFFF000000FFFFFFFFFFFF0000000000CF
S2144034C000FFFFFFFFFFFFFFFFFFFFFFFF000000C3
S2144034D0FFFFFFFFFFFFFFFFFFFFFFFF00000000B3
S2144034E00000000000000000FFFFFFFFFFFFFFFF9F
S2144034F0FFFFFFFFFFFFFFFFFFFFFFFFFFFFFFFF97
S214403500FFFFFFFFFFFFFFFFFFFFFFFFFFFFFFFF86
S214403510FFFFFFFFFFFFFFFFFFFFFFFFFFFFFFFF76
S214403520FFFFFFFFFFFFFFFFFFFFFFFFFFFFFFFF66
S214403530FFFFFFFFFFFFFFFFFFFFFFFFFFFFFF0055
S214403540E0334000090000000D00000008000000C5
S214403550000000FFFFFFFFFFFFFFFFFFFFFFFFFF33
S214403560FFFFFFFFFF000000FFFFFF000000FFFF20
S214403570FFFFFFFFFFFFFFFFFFFFFFFFFFFFFFFF16
S214403580000000FFFFFF000000FFFFFFFFFFFFFF00
S214403590FFFFFFFFFFFFFFFFFFFFFF000000FFFFF3
S2144035A0FF000000FFFFFFFFFFFFFFFFFFFFFFFFE3
S2144035B0FFFFFFFFFFFF000000FFFFFF00000000CF
S2144035C000000000000000000000000000000000B6
S2144035D000000000FFFFFF000000FFFFFFFFFFFFAF
S2144035E0FFFFFFFFFFFFFFFFFFFFFFFF000000FFA3
S2144035F0FFFF000000FFFFFFFFFFFFFFFFFFFFFF93
S214403600FFFFFFFFFFFFFF000000FFFFFF0000007F
S214403610FFFFFFFFFFFFFFFFFFFFFFFFFFFFFFFF75
S214403620FFFF000000FFFFFF000000FFFFFFFFFF5F
S214403630FFFFFFFFFFFFFFFFFFFFFFFFFF00000052
S214403640FFFFFF000000FFFFFFFFFFFFFFFFFFFF42
S214403650FFFFFFFFFFFFFFFF000000FFFFFFFFFF32
S214403660FFFFFFFFFFFFFFFFFFFFFFFFFFFFFFFF25
S214403670FFFFFFFFFFFFFFFFFFFFFFFFFFFFFFFF15
S214403680FFFFFFFFFFFFFFFFFFFFFFFFFFFFFFFF05
S214403690FFFFFFFFFFFFFFFFFFFFFFFFFFFFFFFFF5
S2144036A0FFFFFFFFFFFFFFFFFFFFFFFFFFFFFF00E4
S2144036B050354000090000000D00000008000000E2
S2144036C0000000000000000000FFFFFFFFFFFF00BB
S2144036D00000FFFFFFFFFFFFFFFFFF000000FFFFB0
S2144036E0FFFFFFFFFFFFFF000000FFFFFFFFFFFFA2
S2144036F0FFFFFF000000FFFFFFFFFFFFFFFFFF0091
S2144037000000FFFFFFFFFFFFFFFFFF000000FFFF7F
S214403710FFFFFFFFFFFFFF000000FFFFFFFFFFFF71
S214403720FFFFFF000000FFFFFFFFFFFF000000005D
S2144037300000000000FFFFFFFFFFFFFFFFFFFFFF4F
S214403740FFFFFFFFFFFFFFFFFFFFFFFFFFFFFFFF44
S214403750FFFFFFFFFFFFFFFFFFFFFFFFC0364000FA
S214403760040000000D00000008000000FFFFFF00FE
S2144037700000000000000000000000FFFFFFFFFF09
S214403780FFFFFFFFFFFFFFFFFFFF000000FFFFFF01
S214403790FFFFFFFFFFFFFFFFFFFFFFFF000000FFF1
S2144037A0FFFFFFFFFFFFFFFFFFFFFFFFFFFF0000E2
S2144037B000FFFFFFFFFFFFFFFFFFFFFFFFFFFFFFD3
S2144037C0000000FFFFFFFFFFFFFFFFFFFFFFFFFFC1
S2144037D0FFFF000000FFFFFFFFFFFFFFFFFFFFFFB1
S2144037E0FFFFFFFF000000FFFFFFFFFFFFFFFFFFA1
S2144037F0FFFFFFFFFFFF000000FFFFFFFFFFFFFF91
S214403800FFFFFFFFFFFFFFFF000000FFFFFF00007E
S21440381000000000000000000000FFFFFFFFFFFF69
S214403820FFFFFFFFFFFFFFFFFFFFFFFFFFFFFFFF63
S214403830FFFFFFFFFFFFFFFFFFFFFFFFFFFFFFFF53
S214403840FFFFFFFFFFFFFFFFFFFFFFFFFFFFFFFF43
S214403850FFFFFFFFFFFF00006C3740000600000040
S2144038600D00000008000000000000FFFFFFFFFF03
S214403870FFFFFFFFFFFFFFFFFFFF000000FFFFFF10
S214403880000000FFFFFFFFFFFFFFFFFFFFFFFF00FF
S2144038900000FFFFFFFFFFFF000000FFFFFFFFFFEE
S2144038A0FFFFFFFF000000FFFFFFFFFFFFFFFFFFE0
S2144038B0000000FFFFFFFFFFFF000000FFFFFFFFCD
S2144038C0FFFFFFFFFFFFFFFF000000FFFFFF0000BE
S2144038D000FFFFFFFFFFFFFFFFFFFFFFFFFFFFFFB2
S2144038E0000000000000000000FFFFFFFFFFFFFF9A
S2144038F0FFFFFFFFFFFFFFFF000000FFFFFFFFFF90
S214403900FF000000FFFFFFFFFFFFFFFFFFFFFFFF7F
S214403910000000FFFFFFFFFFFFFFFFFF000000FF6C
S214403920FFFFFFFFFFFFFFFF000000FFFFFFFFFF5F
S214403930FFFFFFFFFFFFFF000000FFFFFFFFFFFF4F
S214403940000000FFFFFFFFFFFFFFFFFFFFFFFFFF3F
S214403950FFFF000000FFFFFFFFFFFFFFFFFFFFFF2F
S214403960FFFFFFFFFFFFFFFFFFFFFFFFFFFFFFFF22
S214403970FFFFFFFFFFFFFFFFFFFFFFFFFFFFFFFF12
S214403980FFFFFFFFFFFFFFFFFFFFFFFFFFFFFFFF02
S214403990FFFFFFFFFFFFFFFFFFFFFFFFFFFFFFFFF2
S2144039A068384000080000000D00000008000000D5
S2144039B0000000FFFFFFFFFFFFFFFFFFFFFFFFFFCF
S2144039C0FFFFFFFFFF000000FFFFFFFFFFFFFFFFBF
S2144039D0FFFFFFFFFFFFFFFFFFFF000000FFFFFFAF
S2144039E0FFFFFFFFFFFFFFFFFFFFFFFFFFFFFF00A1
S2144039F00000FFFFFFFFFFFFFFFFFFFFFFFFFFFF90
S214403A00FFFFFFFF000000FFFFFFFFFFFFFFFFFF7E
S214403A10FFFFFFFFFFFFFFFFFF000000FFFFFFFF6E
S214403A20FFFFFFFFFFFFFFFFFFFFFFFFFFFF00005F
S214403A3000FFFFFFFFFFFFFFFFFFFFFFFFFFFFFF50
S214403A40FFFFFF000000FFFFFFFFFFFFFFFFFFFF3E
S214403A50FFFFFFFFFFFFFFFF000000FFFFFFFFFF2E
S214403A60FFFFFFFFFFFFFFFFFFFFFFFFFF0000001E
S214403A70000000000000000000000000000000FF02
S214403A80FFFFFFFFFFFFFFFFFFFFFFFFFFFFFFFF01
S214403A90FFFFFFFFFFFFFFFFFFFFFFFFFFFFFFFFF1
S214403AA0FFFFFFFFFFFFFFFFFFFFFFFFFFFFFFFFE1
S214403AB0FFFFFFFFFFFFFFFFFFFFFFFFFFFFFFFFD1
S214403AC0FF000000B0394000070000000D00000075
S214403AD008000000000000000000FFFFFFFFFFFF9F
S214403AE0FFFFFFFFFFFFFFFFFF000000000000FF9B
S214403AF0FFFF000000000000FFFFFFFFFFFFFFFF8B
S214403B00FFFFFFFFFFFFFF000000000000FFFFFF7A
S214403B10000000FFFFFF000000FFFFFFFFFFFFFF6A
S214403B20FFFF000000FFFFFF000000FFFFFF000058
S214403B3000FFFFFF000000FFFFFFFFFFFFFFFFFF4C
S214403B40000000FFFFFF000000FFFFFF000000FF37
S214403B50FFFFFFFFFF000000FFFFFF000000FFFF2A
S214403B60FFFFFFFF000000FFFFFF000000FFFFFF1A
S214403B70FFFFFF000000FFFFFF000000FFFFFFFF0A
S214403B80FFFF000000FFFFFF000000FFFFFFFFFFFA
S214403B90FFFFFFFF000000FFFFFFFFFFFFFFFFFFED
S214403BA0000000FFFFFF000000FFFFFFFFFFFFFFDA
S214403BB0FFFF000000FFFFFFFFFFFFFFFFFF0000CB
S214403BC000FFFFFF000000FFFFFFFFFFFFFFFFFFBC
S214403BD0FFFFFFFFFFFFFFFFFFFFFFFF000000FFAD
S214403BE0FFFF000000FFFFFFFFFFFFFFFFFFFFFF9D
S214403BF0FFFFFFFFFFFFFFFFFFFF000000FFFFFF8D
S214403C00FFFFFFFFFFFFFFFFFFFFFFFFFFFFFFFF7F
S214403C10FFFFFFFFFFFFFFFFFFFFFFFFFFFFFFFF6F
S214403C20FFFFFFFFFFFFFFFFFFFFFFFFFFFFFFFF5F
S214403C30FFFFFFFFFFFFFFFFFFFFFFFFFFFFFFFF4F
S214403C40FFFFFFFFFFFFFFFFFFFFFFFFFFFFFFFF3F
S214403C50FFFFFFFFFFFFFFFFFFFF0000D43A4000DB
S214403C600A0000000D0000000800000000000000F0
S214403C700000FFFFFFFFFFFFFFFFFFFFFFFFFFFF0D
S214403C80FF000000FFFFFF000000000000FFFFFFF6
S214403C90FFFFFFFFFFFFFFFFFFFFFFFF000000FFEC
S214403CA0FFFF000000FFFFFF000000FFFFFFFFFFD9
S214403CB0FFFFFFFFFFFFFF000000FFFFFF000000C9
S214403CC0FFFFFF000000FFFFFFFFFFFFFFFFFFFFBC
S214403CD0FFFF000000FFFFFF000000FFFFFFFFFFA9
S214403CE0FF000000FFFFFFFFFFFFFFFFFF00000099
S214403CF0FFFFFF000000FFFFFFFFFFFFFFFFFF008B
S214403D000000FFFFFFFFFFFF000000FFFFFF000077
S214403D1000FFFFFFFFFFFFFFFFFF000000FFFFFF6A
S214403D20FFFFFF000000FFFFFF000000FFFFFFFF58
S214403D30FFFFFFFFFFFFFFFF000000FFFFFF000049
S214403D4000FFFFFF000000FFFFFFFFFFFFFFFFFF3A
S214403D50FFFFFFFFFFFF000000000000FFFFFF0027
S214403D600000FFFFFFFFFFFFFFFFFFFFFFFFFFFF1C
S214403D70FF000000000000FFFFFFFFFFFFFFFFFF08
S214403D80FFFFFFFFFFFFFFFFFFFFFFFFFFFFFFFFFE
S214403D90FFFFFFFFFFFFFFFFFFFFFFFFFFFFFFFFEE
S214403DA0FFFFFFFFFFFFFFFFFFFFFFFFFFFFFFFFDE
S214403DB0FFFFFFFFFFFFFFFFFFFFFFFFFFFFFFFFCE
S214403DC0FFFFFFFFFFFFFFFFFFFFFF006C3C4000D1
S214403DD0090000000D00000008000000FFFFFFFF84
S214403DE0FFFFFFFFFF000000000000000000FFFF95
S214403DF0FFFFFFFFFFFFFFFFFFFFFFFFFF0000008B
S214403E00000000FFFFFFFFFFFFFFFFFF0000000076
S214403E100000FFFFFFFFFFFFFFFFFF000000FFFF68
S214403E20FFFFFFFFFFFFFFFFFFFFFFFFFF0000005A
S214403E30FFFFFFFFFFFF000000FFFFFFFFFFFFFF4A
S214403E40FFFFFFFFFFFFFFFFFFFFFFFFFFFF00003B
S214403E5000FFFFFF000000FFFFFFFFFFFFFFFFFF29
S214403E60FFFFFFFFFFFFFFFFFFFFFFFF000000FF1A
S214403E70FFFF000000FFFFFFFFFFFFFFFFFFFFFF0A
S214403E80FFFFFFFFFFFFFFFFFFFF000000FFFFFFFA
S214403E90000000FFFFFFFFFFFFFFFFFFFFFFFFFFEA
S214403EA0FFFFFFFFFFFFFFFF000000FFFFFFFFFFDA
S214403EB0FF000000FFFFFFFFFFFFFFFFFFFFFFFFCA
S214403EC0FFFFFF000000FFFFFFFFFFFFFFFFFF00B9
S214403ED00000000000FFFFFFFFFFFFFFFFFF0000A6
S214403EE000000000FFFFFFFFFFFFFFFFFFFFFFFF99
S214403EF0FFFFFF000000000000000000FFFFFFFF84
S214403F00FFFFFFFFFFFFFFFFFFFFFFFFFFFFFFFF7C
S214403F10FFFFFFFFFFFFFFFFFFFFFFFFFFFFFFFF6C
S214403F20FFFFFFFFFFFFFFFFFFFFFFFFFFFFFFFF5C
S214403F30FFFFFFFFFFFFFFFFFFFFFFFFFFFFFFFF4C
S214403F40FFFFFFFFFFFFFFFFFFFFFFFFFFFFFFFF3C
S214403F50FFFFFFFFFFFFFFFFFFFFFFFFFFFFFFFF2C
S214403F60FFFF0000DC3D40000A0000000D0000009E
S214403F7008000000000000000000000000000000F4
S214403F80000000FFFFFFFFFFFFFFFFFF000000FFF6
S214403F90FFFFFFFFFFFFFFFFFFFFFF000000FFFFE9
S214403FA0FFFFFFFF000000FFFFFFFFFFFFFFFFFFD9
S214403FB0FFFFFFFFFFFF000000FFFFFF000000FFC6
S214403FC0FFFFFFFFFFFFFFFFFFFFFFFFFFFF0000BA
S214403FD000FFFFFF000000FFFFFFFFFFFFFFFFFFA8
S214403FE0FFFFFF000000FFFFFFFFFFFF0000000095
S214403FF00000000000000000000000FFFFFFFFFF81
S214404000FFFFFFFF000000FFFFFFFFFFFFFFFFFF78
S214404010FFFFFFFFFFFFFFFFFFFFFFFF000000FF68
S214404020FFFFFFFFFFFFFFFFFFFFFFFFFFFFFFFF5B
S214404030FFFFFFFF000000FFFFFFFFFFFFFFFFFF48
S214404040FFFFFFFFFFFFFFFFFFFFFFFF000000FF38
S214404050FFFFFFFFFFFFFFFFFFFFFFFFFFFFFFFF2B
S214404060FFFFFFFFFFFFFFFFFFFFFFFFFFFFFFFF1B
S214404070FFFFFFFFFFFFFFFFFFFFFFFFFFFFFFFF0B
S214404080FFFFFFFFFFFFFFFFFFFFFFFFFFFFFFFFFB
S214404090FFFFFFFFFFFFFFFFFFFFFFFFFFFFFFFFEB
S2144040A0FFFFFFFFFFFFFFFFFFFFFFFF743F4000E4
S2144040B0080000000D00000008000000FFFFFFFFA2
S2144040C0FFFFFFFFFF000000000000000000FFFFB2
S2144040D0FFFFFFFFFFFFFFFFFFFFFFFFFF000000A8
S2144040E0000000FFFFFFFFFFFFFFFFFF0000000094
S2144040F00000FFFFFFFFFFFFFFFFFF000000FFFF86
S214404100FFFFFFFFFFFFFFFFFFFFFFFFFF00000077
S214404110FFFFFFFFFFFF000000FFFFFFFFFFFFFF67
S214404120FFFFFFFFFFFFFFFFFFFFFFFFFFFF000058
S21440413000FFFFFF000000FFFFFFFFFFFFFFFFFF46
S214404140FFFFFFFFFFFFFFFFFFFFFFFF000000FF37
S214404150FFFF000000FFFFFFFFFFFFFFFFFFFFFF27
S214404160FFFFFFFFFFFFFFFFFFFF000000FFFFFF17
S214404170000000FFFFFFFFFFFFFFFFFFFFFFFFFF07
S214404180FFFFFFFFFFFFFFFF000000FFFFFFFFFFF7
S214404190FF000000FFFFFFFFFFFFFFFFFFFFFFFFE7
S2144041A0FFFFFF000000FFFFFFFFFFFFFFFFFF00D6
S2144041B00000000000FFFFFFFFFFFFFFFFFF0000C3
S2144041C000000000FFFFFFFFFFFFFFFFFFFFFFFFB6
S2144041D0FFFFFF000000000000000000FFFFFFFFA1
S2144041E0FFFFFFFFFFFFFFFFFFFFFFFFFFFFFFFF9A
S2144041F0FFFFFFFFFFFFFF000000FFFFFFFFFFFF87
S214404200FFFFFFFFFFFFFFFFFFFFFFFFFFFFFFFF79
S214404210FFFFFFFFFF000000FFFFFFFFFFFFFFFF66
S214404220FFFFFFFFFFFFFFFFFFFFFFFFFFFFFFFF59
S214404230FFFFFFFFFFFF000000000000000000FF40
S214404240FFFF0000BC4040000A0000000D000000D8
S2144042500800000000000000000000000000000011
S214404260000000FFFFFFFFFFFFFFFFFFFFFFFF0015
S2144042700000FFFFFFFFFFFFFFFFFFFFFFFF000005
S21440428000FFFFFFFFFFFFFFFFFF000000FFFFFFF5
S214404290FFFFFFFFFFFFFFFFFF000000FFFFFFFFE6
S2144042A0FFFFFFFFFF000000FFFFFFFFFFFFFFFFD6
S2144042B0FFFFFFFF000000FFFFFFFFFFFFFFFFFFC6
S2144042C0000000FFFFFFFFFFFFFFFFFFFFFFFF00B5
S2144042D00000FFFFFFFFFFFFFFFFFF0000000000A2
S2144042E000000000000000000000FFFFFFFFFFFF8F
S2144042F0FFFFFFFFFFFF000000FFFFFFFFFFFFFF86
S214404300FFFF000000FFFFFFFFFFFFFFFFFFFFFF75
S214404310FF000000FFFFFFFFFFFFFFFFFFFFFFFF65
S214404320000000FFFFFFFFFFFFFFFFFF000000FF52
S214404330FFFFFFFFFFFFFFFFFFFFFFFFFFFF000046
S21440434000FFFFFFFFFFFF000000FFFFFFFFFFFF34
S214404350FFFFFFFFFFFFFFFFFFFFFFFF000000FF25
S214404360FFFFFFFFFFFFFFFFFFFFFFFFFFFFFFFF18
S214404370FFFFFFFFFFFFFFFFFFFFFFFFFFFFFFFF08
S214404380FFFFFFFFFFFFFFFFFFFFFFFFFFFFFFFFF8
S214404390FFFFFFFFFFFFFFFFFFFFFFFFFFFFFFFFE8
S2144043A0FFFFFFFFFFFFFFFFFFFFFFFFFFFFFFFFD8
S2144043B0FFFFFF0054424000090000000D000000CF
S2144043C008000000FFFFFF000000000000000000A3
S2144043D0000000000000FFFFFFFFFFFF000000FF9F
S2144043E0FFFFFFFFFFFFFFFFFFFFFFFFFFFF000096
S2144043F000FFFFFF000000FFFFFFFFFFFFFFFFFF84
S214404400FFFFFFFFFFFFFFFFFFFFFFFF000000FF74
S214404410FFFFFFFFFFFFFFFFFFFFFFFFFFFFFFFF67
S214404420FFFFFFFFFFFFFF0000000000000000004E
S214404430FFFFFFFFFFFFFFFFFFFFFFFFFFFFFFFF47
S214404440FFFFFFFFFFFFFFFF000000000000FFFF31
S214404450FFFFFFFFFFFFFFFFFFFFFFFFFFFFFFFF27
S214404460FFFFFFFFFFFF000000FFFFFFFFFFFFFF14
S214404470FFFFFFFFFFFFFFFFFFFFFFFFFFFF000005
S21440448000FFFFFF000000FFFFFFFFFFFFFFFFFFF3
S214404490FFFFFFFFFFFF000000FFFFFFFFFFFF00E3
S2144044A00000000000000000000000000000FFFFC9
S2144044B0FFFFFFFFFFFFFFFFFFFFFFFFFFFFFFFFC7
S2144044C0FFFFFFFFFFFFFFFFFFFFFFFFFFFFFFFFB7
S2144044D0FFFFFFFFFFFFFFFFFFFFFFFFFFFFFFFFA7
S2144044E0FFFFFFFFFFFFFFFFFFFFFFFFFFFFFFFF97
S2144044F0FFFFFFFFFFFFFFFFFFFFFFFFC44340003C
S214404500080000000D000000080000000000000049
S2144045100000000000000000000000000000000056
S21440452000000000FFFFFFFFFFFFFFFFFF0000004F
S214404530FFFFFFFFFFFFFFFFFFFFFFFFFFFFFFFF46
S214404540FFFFFFFFFF000000FFFFFFFFFFFFFFFF33
S214404550FFFFFFFFFFFFFFFFFFFFFFFFFF00000023
S214404560FFFFFFFFFFFFFFFFFFFFFFFFFFFFFFFF16
S214404570FFFFFFFFFF000000FFFFFFFFFFFFFFFF03
S214404580FFFFFFFFFFFFFFFFFFFFFFFFFF000000F3
S214404590FFFFFFFFFFFFFFFFFFFFFFFFFFFFFFFFE6
S2144045A0FFFFFFFFFF000000FFFFFFFFFFFFFFFFD3
S2144045B0FFFFFFFFFFFFFFFFFFFFFFFFFF000000C3
S2144045C0FFFFFFFFFFFFFFFFFFFFFFFFFFFFFFFFB6
S2144045D0FFFFFFFFFF000000FFFFFFFFFFFFFFFFA3
S2144045E0FFFFFFFFFFFFFFFFFFFFFFFFFF00000093
S2144045F0FFFFFFFFFFFFFFFFFFFFFFFFFFFFFFFF86
S214404600FFFFFFFFFFFFFFFFFFFFFFFFFFFFFFFF75
S214404610FFFFFFFFFFFFFFFFFFFFFFFFFFFFFFFF65
S214404620FFFFFFFFFFFFFFFFFFFFFFFFFFFFFFFF55
S214404630FFFFFFFFFFFFFFFFFFFFFFFFFFFFFFFF45
S214404640FFFFFFFF0C454000080000000D00000083
S21440465008000000000000FFFFFFFFFFFFFFFFFF16
S214404660FFFFFFFFFFFFFFFFFF000000FFFFFF0011
S2144046700000FFFFFFFFFFFFFFFFFFFFFFFFFFFF03
S214404680FFFFFFFF000000FFFFFF000000FFFFFFEF
S214404690FFFFFFFFFFFFFFFFFFFFFFFFFFFFFF00E4
S2144046A00000FFFFFF000000FFFFFFFFFFFFFFFFD0
S2144046B0FFFFFFFFFFFFFFFFFFFF000000FFFFFFC2
S2144046C0000000FFFFFFFFFFFFFFFFFFFFFFFFFFB2
S2144046D0FFFFFFFFFF000000FFFFFF000000FFFF9F
S2144046E0FFFFFFFFFFFFFFFFFFFFFFFFFFFFFFFF95
S2144046F0000000FFFFFF000000FFFFFFFFFFFFFF7F
S214404700FFFFFFFFFFFFFFFFFFFFFF000000FFFF71
S214404710FF000000FFFFFFFFFFFFFFFFFFFFFFFF61
S214404720FFFFFFFFFFFF000000FFFFFFFFFFFF0050
S2144047300000FFFFFFFFFFFFFFFFFFFFFFFF000040
S21440474000FFFFFFFFFFFFFFFFFFFFFFFF00000030
S214404750000000000000000000FFFFFFFFFFFFFF1B
S214404760FFFFFFFFFFFFFFFFFFFFFFFFFFFFFFFF14
S214404770FFFFFFFFFFFFFFFFFFFFFFFFFFFFFFFF04
S214404780FFFFFFFFFFFFFFFFFFFFFFFFFFFFFFFFF4
S214404790FFFFFFFFFFFFFFFFFFFFFFFFFFFFFFFFE4
S2144047A0FFFFFFFFFFFFFFFFFFFFFFFFFFFFFFFFD4
S2144047B0FFFFFF0054464000090000000D000000C7
S2144047C008000000000000FFFFFFFFFFFFFFFFFFA5
S2144047D0FFFFFFFFFFFF000000FFFFFF000000FF9E
S2144047E0FFFFFFFFFFFFFFFFFFFFFFFFFFFF000092
S2144047F000FFFFFFFFFFFF000000FFFFFFFFFFFF80
S214404800FFFFFF000000FFFFFFFFFFFFFFFFFF006F
S2144048100000FFFFFFFFFFFFFFFFFF000000FFFF5E
S214404820FFFFFFFFFFFFFF000000FFFFFFFFFFFF50
S214404830FFFFFF000000FFFFFFFFFFFFFFFFFFFF40
S214404840FFFF000000FFFFFF000000FFFFFFFFFF2D
S214404850FFFFFFFFFFFFFFFFFFFF000000FFFFFF20
S214404860000000FFFFFFFFFFFFFFFFFFFFFFFFFF10
S214404870FFFF000000FFFFFF000000FFFFFFFFFFFD
S214404880FFFFFFFFFFFFFFFFFFFFFFFFFF000000F0
S214404890FFFFFFFFFFFFFFFFFFFFFFFFFFFFFFFFE3
S2144048A0FFFFFFFFFF000000FFFFFFFFFFFFFFFFD0
S2144048B0FFFFFFFFFFFFFFFFFFFFFFFFFFFFFFFFC3
S2144048C0FFFFFFFFFFFFFFFFFFFFFFFFFFFFFFFFB3
S2144048D0FFFFFFFFFFFFFFFFFFFFFFFFFFFFFFFFA3
S2144048E0FFFFFFFFFFFFFFFFFFFFFFFFFFFFFFFF93
S2144048F0FFFFFFFFFFFFFFFFFFFFFFFFC447400034
S214404900080000000D00000008000000000000FF46
S214404910FFFFFFFFFFFFFFFFFFFFFFFFFFFF000060
S21440492000FFFFFFFFFFFFFFFFFFFFFFFFFFFFFF51
S214404930000000FFFFFF000000FFFFFFFFFFFFFF3C
S214404940FFFFFFFFFF000000FFFFFF000000FFFF2C
S214404950FFFFFFFFFFFFFFFFFFFF000000FFFFFF1F
S214404960FFFFFF000000FFFFFFFFFFFFFFFFFF000E
S2144049700000FFFFFF000000FFFFFFFFFFFFFFFFFD
S214404980FF000000FFFFFFFFFFFFFFFFFF000000EC
S214404990FFFFFFFFFFFFFFFFFF000000FFFFFF00DE
S2144049A00000FFFFFFFFFFFFFFFFFF000000FFFFCD
S2144049B0FFFFFFFFFFFFFF000000FFFFFFFFFFFFBF
S2144049C0FFFFFF000000FFFFFF000000FFFFFFFFAC
S2144049D0FFFFFFFFFF000000FFFFFFFFFFFFFFFF9F
S2144049E0FF000000FFFFFFFFFFFF000000FFFFFF8C
S2144049F0FFFFFFFFFFFF000000FFFFFFFFFFFF007E
S214404A000000FFFFFFFFFFFFFFFFFFFFFFFF00006D
S214404A1000FFFFFF000000FFFFFFFFFFFFFFFFFF5D
S214404A20000000FFFFFF000000FFFFFFFFFFFFFF4B
S214404A30FFFFFFFFFFFFFFFF000000FFFFFF00003C
S214404A4000FFFFFFFFFFFFFFFFFF000000FFFFFF2D
S214404A50000000FFFFFFFFFFFFFFFFFFFFFFFFFF1E
S214404A60FFFF000000000000FFFFFFFFFFFFFFFF0B
S214404A70FFFFFFFFFFFFFF000000000000FFFFFFFB
S214404A80FFFFFFFFFFFFFFFFFFFFFFFFFFFFFF00F0
S214404A900000FFFFFFFFFFFFFFFFFFFFFFFFFFFFDF
S214404AA0FF000000FFFFFFFFFFFFFFFFFFFFFFFFCE
S214404AB0FFFFFFFFFFFFFFFFFFFFFFFFFFFFFFFFC1
S214404AC0FFFFFFFFFFFFFFFFFFFFFFFFFFFFFFFFB1
S214404AD0FFFFFFFFFFFFFFFFFFFFFFFFFFFFFFFFA1
S214404AE0FFFFFFFFFFFFFFFFFFFFFFFFFFFFFFFF91
S214404AF0FFFFFFFFFFFFFFFFFFFFFFFFFFFFFFFF81
S214404B00FFFFFFFFFFFFFFFFFFFFFFFFFFFFFFFF70
S214404B10FFFFFFFFFFFFFFFFFFFFFFFFFFFFFFFF60
S214404B20FFFFFFFFFFFFFFFFFFFFFFFFFFFF00004E
S214404B300C4940000E0000000D0000000800000078
S214404B40000000FFFFFFFFFFFFFFFFFFFFFFFFFF2D
S214404B50FFFF000000FFFFFFFFFFFF000000FFFF1A
S214404B60FFFFFFFFFFFFFF000000FFFFFFFFFFFF0D
S214404B70FFFFFF000000FFFFFFFFFFFFFFFFFF00FC
S214404B800000FFFFFFFFFFFFFFFFFFFFFFFF0000EC
S214404B9000FFFFFF000000FFFFFFFFFFFFFFFFFFDC
S214404BA0FFFFFFFFFFFFFFFFFF000000FFFFFFFFCD
S214404BB0FFFFFFFFFFFFFFFFFFFFFFFFFFFFFFFFC0
S214404BC0FF000000FFFFFFFFFFFFFFFFFFFFFFFFAD
S214404BD0FFFFFFFFFFFF000000FFFFFF000000FF9A
S214404BE0FFFFFFFFFFFFFFFFFFFFFF000000FFFF8D
S214404BF0FFFFFFFFFFFFFF000000FFFFFFFFFFFF7D
S214404C00FFFFFF000000FFFFFFFFFFFFFFFFFF006B
S214404C100000FFFFFFFFFFFF000000FFFFFFFFFF5A
S214404C20FFFFFFFFFFFFFFFFFFFF000000FFFFFF4C
S214404C30FFFFFFFFFFFFFFFFFFFFFFFFFFFFFFFF3F
S214404C40FFFFFFFFFFFFFFFFFFFFFFFFFFFFFFFF2F
S214404C50FFFFFFFFFFFFFFFFFFFFFFFFFFFFFFFF1F
S214404C60FFFFFFFFFFFFFFFFFFFFFFFFFFFFFFFF0F
S214404C70FFFFFFFFFFFFFFFF404B40000800000024
S214404C800D00000008000000000000FFFFFFFFFFCF
S214404C90FFFFFFFFFFFFFFFFFFFF000000FFFFFFDC
S214404CA0FFFFFF000000FFFFFFFFFFFFFFFFFF00CB
S214404CB00000FFFFFFFFFFFFFFFFFF000000FFFFBA
S214404CC0FFFFFFFFFFFFFF000000FFFFFFFFFFFFAC
S214404CD0FFFFFFFFFFFF000000FFFFFF000000FF99
S214404CE0FFFFFFFFFFFFFFFFFFFFFFFFFFFF00008D
S214404CF000FFFFFF000000FFFFFFFFFFFFFFFFFF7B
S214404D00FFFFFFFFFFFFFFFFFF000000FFFFFFFF6B
S214404D10FFFFFFFFFFFFFFFFFFFFFFFFFFFFFFFF5E
S214404D20FF000000FFFFFFFFFFFFFFFFFFFFFFFF4B
S214404D30FFFFFFFFFFFFFFFFFF000000FFFFFFFF3B
S214404D40FFFFFFFFFFFFFFFFFFFFFFFFFFFFFFFF2E
S214404D50FF000000FFFFFFFFFFFFFFFFFFFFFFFF1B
S214404D60FFFFFFFFFFFFFFFFFF000000FFFFFFFF0B
S214404D70FFFFFFFFFFFFFFFFFFFFFFFFFFFFFFFFFE
S214404D80FFFFFFFFFFFFFFFFFFFFFFFFFFFFFFFFEE
S214404D90FFFFFFFFFFFFFFFFFFFFFFFFFFFFFFFFDE
S214404DA0FFFFFFFFFFFFFFFFFFFFFFFFFFFFFFFFCE
S214404DB0FFFFFFFFFFFFFFFFFFFFFFFFFFFFFFFFBE
S214404DC0884C4000080000000D000000080000006D
S214404DD0000000000000000000000000000000008E
S214404DE00000000000FFFFFFFFFFFFFFFFFFFFFF89
S214404DF0FFFFFFFFFFFFFFFFFFFF000000FFFFFF7B
S214404E00FFFFFFFFFFFFFFFFFFFFFFFFFFFFFF006C
S214404E100000FFFFFFFFFFFFFFFFFFFFFFFFFFFF5B
S214404E20FFFFFFFF000000FFFFFFFFFFFFFFFFFF4A
S214404E30FFFFFFFFFFFFFFFFFF000000FFFFFFFF3A
S214404E40FFFFFFFFFFFFFFFFFFFFFFFFFFFFFFFF2D
S214404E50FF000000FFFFFFFFFFFFFFFFFFFFFFFF1A
S214404E60FFFFFFFFFFFF000000FFFFFFFFFFFFFF0A
S214404E70FFFFFFFFFFFFFFFFFFFFFF000000FFFFFA
S214404E80FFFFFFFFFFFFFFFFFFFFFFFFFFFFFFFFED
S214404E90000000FFFFFFFFFFFFFFFFFFFFFFFFFFDA
S214404EA0FFFFFFFFFFFFFFFF0000000000000000C5
S214404EB000000000000000000000000000FFFFFFB0
S214404EC0FFFFFFFFFFFFFFFFFFFFFFFFFFFFFFFFAD
S214404ED0FFFFFFFFFFFFFFFFFFFFFFFFFFFFFFFF9D
S214404EE0FFFFFFFFFFFFFFFFFFFFFFFFFFFFFFFF8D
S214404EF0FFFFFFFFFFFFFFFFFFFFFFFFFFFFFFFF7D
S214404F00FFFFFFFFFFFFFFFFD04D400008000000FF
S214404F100D0000000800000041000000142D400075
S214404F20420000005C2E400043000000CC2F4000B2
S214404F30440000006431400045000000AC324000B0
S214404F4046000000D0334000470000004035400097
S214404F5048000000B0364000490000005C37400082
S214404F604A000000583840004B000000A03940007E
S214404F704C000000C43A40004D0000005C3C40003D
S214404F804E000000CC3D40004F000000643F400013
S214404F9050000000AC404000510000004442400039
S214404FA052000000B443400053000000FC44400060
S214404FB0540000004446400055000000B4474000FE
S214404FC056000000FC48400057000000304B4000B0
S214404FD058000000784C400059000000C04D40008A
S214404FE05A000000084F40001A000000184F4000CA
S214404FF0415A0000FFFFFFFFFFFFFFFFFFFFFFFFDD
S214405000FFFFFFFFFFFFFFFFFFFFFFFFFFFFFFFF6B
S214405010FFFFFFFFFFFFFFFFFFFFFFFFFFFFFFFF5B
S214405020FFFFFFFFFFFFFFFFFFFFFFFFFFFFFFFF4B
S214405030FFFFFFFFFFFFFFFFFFFFFFFFFFFFFFFF3B
S214405360FFFFFFFFFFFFFFFFFFFFFFFFF44F400081
S214405370080000002500000008000000FFFFFFFFB7
S214405380FFFFFFFFFFFFFFFFFFFFFFFFFFFFFFFFE8
S214405390FFFFFFFFFFFFFFFFFFFFFFFFFFFFFFFFD8
S2144053A0FFFFFFFFFFFFFFFFFFFFFFFFFFFFFFFFC8
S2144053B0FFFFFFFFFFFFFFFFFFFFFFFFFFFFFFFFB8
S2144053C0FFFFFFFFFFFFFFFFFFFFFFFFFFFFFFFFA8
S2144053D0FFFFFFFFFFFFFFFFFFFFFFFFFFFFFFFF98
S2144053E0FFFFFFFFFFFFFFFFFFFFFFFFFFFFFFFF88
S2144053F0FFFFFFFFFFFFFF0000000000000000006F
S214405400FFFFFFFFFFFFFFFFFFFFFFFFFFFFFFFF67
S214405410FFFFFFFFFFFFFFFFFFFFFF000000000052
S21440542000000000FFFFFFFFFFFFFFFFFFFFFFFF43
S214405430FFFFFFFFFFFFFFFFFFFFFFFFFFFFFF0036
S2144054400000000000000000FFFFFFFFFFFFFFFF1F
S214405450FFFFFFFFFFFFFFFFFFFFFFFFFFFFFFFF17
S214405460FFFFFF000000000000000000FFFFFFFFFE
S214405470FFFFFFFFFFFFFFFFFFFFFFFFFFFFFFFFF7
S214405480FFFFFFFFFFFFFF000000000000000000DE
S214405490FFFFFFFFFFFFFFFFFFFFFFFFFFFFFFFFD7
S2144054A0FFFFFFFFFFFFFFFFFFFFFF0000000000C2
S2144054B000000000FFFFFFFFFFFFFFFFFFFFFFFFB3
S2144054C0FFFFFFFFFFFFFFFFFFFFFFFFFFFFFF00A6
S2144054D00000000000000000FFFFFFFFFFFFFFFF8F
S2144054E0FFFFFFFFFFFFFFFFFFFFFFFFFFFFFFFF87
S2144054F0FFFFFF000000000000000000FFFFFFFF6E
S214405500FFFFFFFFFFFFFFFFFFFFFFFFFFFFFFFF66
S214405510FFFFFFFFFFFFFF0000000000000000004D
S214405520FFFFFFFFFFFFFFFFFFFFFFFFFFFFFFFF46
S214405530FFFFFFFFFFFFFFFFFFFFFF000000000031
S21440554000000000FFFFFFFFFFFFFFFFFFFFFFFF22
S214405550FFFFFFFFFFFFFFFFFFFFFFFFFFFFFF0015
S2144055600000000000000000FFFFFFFFFFFFFFFFFE
S214405570FFFFFFFFFFFFFFFFFFFFFFFFFFFFFFFFF6
S214405580FFFFFF000000000000000000FFFFFFFFDD
S214405590FFFFFFFFFFFFFFFFFFFFFFFFFFFFFFFFD6
S2144055A0FFFFFFFFFFFFFF000000000000000000BD
S2144055B0FFFFFFFFFFFFFFFFFFFFFFFFFFFFFFFFB6
S2144055C0FFFFFFFFFFFFFFFFFFFFFF0000000000A1
S2144055D000000000FFFFFFFFFFFFFFFFFFFFFFFF92
S2144055E0FFFFFFFFFFFFFFFFFFFFFFFFFFFFFF0085
S2144055F00000000000000000FFFFFFFFFFFFFFFF6E
S214405600FFFFFFFFFFFFFFFFFFFFFFFFFFFFFFFF65
S214405610FFFFFF000000000000000000FFFFFFFF4C
S214405620FFFFFFFFFFFFFFFFFFFFFFFFFFFFFFFF45
S214405630FFFFFFFFFFFFFF0000000000000000002C
S214405640FFFFFFFFFFFFFFFFFFFFFFFFFFFFFFFF25
S214405650FFFFFFFFFFFFFFFFFFFFFF000000000010
S21440566000000000FFFFFFFFFFFFFFFFFFFFFFFF01
S214405670FFFFFFFFFFFFFFFFFFFFFFFFFFFFFFFFF5
S214405680FFFFFFFFFFFFFFFFFFFFFFFFFFFFFFFFE5
S214405690FFFFFFFFFFFFFFFFFFFFFFFFFFFFFFFFD5
S2144056A0FFFFFFFFFFFFFFFFFFFFFFFFFFFFFFFFC5
S2144056B0FFFFFFFFFFFFFFFFFFFFFFFFFFFFFFFFB5
S2144056C0FFFFFFFFFFFFFF0000000000000000009C
S2144056D0FFFFFFFFFFFFFFFFFFFFFFFFFFFFFFFF95
S2144056E0FFFFFFFFFFFFFFFFFFFFFF000000000080
S2144056F000000000FFFFFFFFFFFFFFFFFFFFFFFF71
S214405700FFFFFFFFFFFFFFFFFFFFFFFFFFFFFF0063
S2144057100000000000000000FFFFFFFFFFFFFFFF4C
S214405720FFFFFFFFFFFFFFFFFFFFFFFFFFFFFFFF44
S214405730FFFFFF000000000000000000FFFFFFFF2B
S214405740FFFFFFFFFFFFFFFFFFFFFFFFFFFFFFFF24
S214405750FFFFFFFFFFFFFFFFFFFFFFFFFFFFFFFF14
S214405760FFFFFFFFFFFFFFFFFFFFFFFFFFFFFFFF04
S214405770FFFFFFFFFFFFFFFFFFFFFFFFFFFFFFFFF4
S214405780FFFFFFFFFFFFFFFFFFFFFFFFFFFFFFFFE4
S214405790FFFFFFFFFFFFFFFFFFFFFFFFFFFFFFFFD4
S2144057A0FFFFFFFFFFFFFFFFFFFFFFFFFFFFFFFFC4
S2144057B0FFFFFFFFFFFFFFFFFFFFFFFFFFFFFFFFB4
S2144057C0FFFFFFFFFFFFFFFFFFFFFFFFFFFFFFFFA4
S2144057D0FFFFFFFFFFFFFFFFFFFFFFFFFFFFFFFF94
S2144057E0FFFFFFFFFFFFFFFFFFFFFFFFFFFFFFFF84
S2144057F0FFFFFFFFFFFFFFFFFFFFFFFFFFFFFFFF74
S214405800FFFFFFFFFFFFFFFFFFFFFFFFFFFFFFFF63
S214405810FFFFFFFFFFFFFFFFFFFFFFFFFFFFFFFF53
S214405820FFFFFFFFFFFFFFFFFFFFFFFFFFFFFFFF43
S214405830FFFFFFFFFFFFFFFFFFFFFFFFFFFFFFFF33
S214405840FFFFFFFFFFFFFFFFFFFFFFFFFFFFFFFF23
S214405850FFFFFFFFFFFFFFFFFFFFFFFFFFFFFFFF13
S214405860FFFFFFFFFFFFFFFFFFFFFFFFFFFFFFFF03
S214405870FFFFFFFFFFFFFFFFFFFFFFFFFFFFFFFFF3
S214405880FFFFFFFFFFFFFFFFFFFFFFFFFFFFFFFFE3
S214405890FFFFFFFFFFFFFFFFFFFFFFFFFFFFFFFFD3
S2144058A0FFFFFFFFFFFFFFFFFFFFFFFFFFFFFFFFC3
S2144058B07C5340000C00000025000000080000005B
S2144058C0FFFFFFFFFFFFFFFFFFFFFFFFFFFFFFFFA3
S2144058D0FFFFFFFFFFFFFFFFFFFFFFFFFFFFFFFF93
S2144058E0FFFFFFFFFFFFFFFFFFFFFFFFFFFFFFFF83
S2144058F0FFFFFFFFFFFFFFFFFFFFFFFFFFFFFFFF73
S214405900FFFFFFFFFFFFFFFFFFFFFFFFFFFFFFFF62
S214405910FFFFFFFFFFFFFFFFFFFFFFFFFFFFFFFF52
S214405920FFFFFFFFFFFFFFFFFFFFFFFFFFFFFFFF42
S214405930FFFFFFFFFFFFFFFFFFFFFFFFFFFFFFFF32
S214405940FFFFFFFF000000000000000000FFFFFF19
S214405950FFFFFFFFFFFFFFFFFF000000000000000B
S2144059600000FFFFFFFFFFFFFFFFFFFFFFFF0000FE
S21440597000000000000000FFFFFFFFFFFFFFFFFFEB
S214405980FFFFFF000000000000000000FFFFFFFFD9
S214405990FFFFFFFFFFFFFFFFFFFFFF0000000000CD
S2144059A000FFFFFFFFFFFFFFFFFFFFFFFF000000BE
S2144059B0000000000000FFFFFFFFFFFFFFFFFFFFAC
S2144059C0FFFFFFFFFF000000000000FFFFFFFFFF9C
S2144059D0FFFFFFFFFFFFFF00000000000000000089
S2144059E0FFFFFFFFFFFFFFFFFFFFFFFFFFFFFF0081
S2144059F00000000000FFFFFFFFFFFFFFFFFFFFFF6D
S214405A00FF000000000000FFFFFFFFFFFFFFFFFF5B
S214405A10FFFFFFFFFFFFFFFFFF000000000000FF4B
S214405A20FFFFFFFFFFFFFFFFFFFFFF00000000003C
S214405A3000FFFFFFFFFFFFFFFFFFFFFFFFFFFFFF30
S214405A40FFFFFF000000000000FFFFFFFFFFFFFF1B
S214405A50FFFFFFFFFF000000000000FFFFFFFFFF0B
S214405A60FFFFFFFFFFFFFFFFFFFFFFFFFF000000FE
S214405A70000000FFFFFFFFFFFFFFFFFFFFFFFF00ED
S214405A800000000000FFFFFFFFFFFFFFFFFFFFFFDC
S214405A90FFFFFFFFFFFFFF000000000000FFFFFFCB
S214405AA0FFFFFFFFFFFFFFFFFF000000000000FFBB
S214405AB0FFFFFFFFFFFFFFFFFFFFFFFFFFFFFFFFB1
S214405AC0FFFFFFFFFFFFFFFFFFFFFFFFFFFFFFFFA1
S214405AD0FFFFFFFFFFFFFFFFFFFFFFFFFFFFFFFF91
S214405AE0FFFFFFFFFFFFFFFFFFFFFFFFFFFFFFFF81
S214405ED0FFFF0000C05840000E00000025000000F4
S214405EE008000000FFFFFFFFFFFFFFFFFFFFFFFF71
S214405EF0FFFFFFFFFFFFFFFFFFFFFFFFFFFFFFFF6D
S214405F00FFFFFFFFFFFFFFFFFFFFFFFFFFFFFFFF5C
S214405F10FFFFFFFFFFFFFFFFFFFFFFFFFFFFFFFF4C
S214405F20FFFFFFFFFFFFFFFFFFFFFFFFFFFFFFFF3C
S214405F30FFFFFFFFFFFFFFFFFFFFFFFFFFFFFFFF2C
S214405F40FFFFFFFFFFFFFFFFFFFFFFFFFFFFFFFF1C
S214405F50FFFFFFFFFFFFFFFFFFFFFFFFFFFFFFFF0C
S214405F60FFFFFFFFFFFFFFFFFFFFFFFFFFFFFFFFFC
S214405F70FFFFFFFFFFFFFFFFFFFFFFFFFFFFFFFFEC
S214405F80FFFFFFFFFFFFFFFFFFFFFFFFFFFFFFFFDC
S214405F90FFFFFFFFFFFFFFFFFFFFFFFFFFFFFFFFCC
S214405FA0FFFFFFFFFFFFFFFFFFFFFFFFFFFFFFFFBC
S214405FB0FFFFFFFFFFFFFFFFFFFFFFFFFFFFFFFFAC
S214405FC0FFFFFFFFFFFFFFFFFFFFFF000000000097
