S014000053414D4537305F464F4E54532E737265639A
S214400000C0284020D92B4000892C4000892C400035
S214400010892C4000892C4000892C400000000000BC
S214400020000000000000000000000000892C400096
S214400030892C400000000000892C4000892C40009C
S214400040892C4000892C4000892C4000892C400097
S214400050892C4000892C4000892C4000892C400087
S214400060892C400000000000D9274000F1274000BE
S21440007009284000892C4000892C4000892C4000EB
S2144000802128400039284000892C4000892C400017
S214400090892C4000892C4000892C4000892C400047
S2144000A0892C4000892C4000892C4000892C400037
S2144000B0892C4000892C4000892C4000892C400027
S2144000C0892C4000892C4000892C4000892C400017
S2144000D0892C4000892C4000892C4000892C400007
S2144000E0892C4000892C4000892C4000892C4000F7
S2144000F0892C4000892C4000892C4000892C4000E7
S214400100892C4000892C4000892C4000892C4000D6
S214400110892C4000000000000000000000000000A5
S214400120892C4000892C4000892C4000892C4000B6
S214400130892C4000892C4000892C4000892C4000A6
S214400140892C4000892C4000892C4000892C400096
S214400150892C4000892C4000892C4000892C400086
S214400160892C4000892C400010B5054C237833B9C3
S214400170044B13B10448AFF300800123237010BD35
S2144001803C04402000000000C4AA44000C4B43B18D
S2144001900C480D4910B5AFF300800C48036823B9EE
S2144001A010BD0A48036833B97047094B002BF7D097
S2144001B0BDE810401847064B002BF5D0184700BF47
S2144001C000000000C4AA440040044020C4AA4400E2
S2144001D00000000080B483B000AF0346FB710949BD
S2144001E097F907305B09FA7902F01F02012000FAFE
S2144001F002F241F8232000BF0C37BD465DF8047B71
S214400200704700BF00E100E080B483B000AF034613
S2144002103960FB7197F90730002B0BDA0D49FB79F3
S21440022003F00F03043B3A68D2B25201D2B20B44F9
S2144002301A7609E0084997F907303A68D2B252016F
S214400240D2B20B4483F8002300BF0C37BD465DF89E
S214400250047B704700ED00E000E100E080B483B02E
S21440026000AF78607B68072B25D801A252F823F0B0
S21440027091024000970240009D024000A3024000C9
S214400280A7024000AB024000AF024000B30240006D
S2144002904FF4FA4310E04FF400430DE04FF40043B0
S2144002A00AE0084B08E0084B06E0084B04E0074B22
S2144002B002E0064B00E0002318460C37BD465DF8CA
S2144002C0047B704700093D0000127A00001BB7000F
S2144002D080B500AF0620054B9847024613469B0064
S2144002E013449A001344184680BD00BF5D02400088
S2144002F080B500AF024B98470346184680BD00BF06
S214400300D102400098B500AF0D4B4FF4A0721A6072
S2144003100B4B4FF4F0725A60094B0A4A9A60084BEE
S214400320084ADA600648084B984740F2DF1340F226
S2144003303F1200210020054CA04700BF98BD00BFDB
S2144003408C084020FCFCFC00F90E400045114000A3
S2144003502DE9F04F87B000AF00237B617EE04FF47D
S21440036080714348434B9847434B9847034619464A
S2144003704FF000020B461446DB1844EB04045B18AF
S21440038044EB0204E000F860F86840EA5370F86016
S214400390DB00BB60D7E902345B1844EB02044FEA4B
S2144003A0C40949EA53794FEAC30843464C461946BE
S2144003B0224641F22B734FF00004CD1842EB040660
S2144003C0284631462D4C41F22C724FF00003A04790
S2144003D003460C4618462A4B98474FF480712448EB
S2144003E0284B9847244B9847034619464FF000023F
S2144003F00B461446DB1844EB04045B1844EB02043B
S2144004004FEAC40B4BEA537B4FEAC30A53465C465B
S2144004105B1844EB0204E2007A607A6842EA537260
S2144004207A60DB003B60D7E900341946224641F249
S2144004302B734FF00004CD1842EB04062846314695
S2144004400E4C41F22C724FF00003A04703460C4678
S21440045018460B4B98477B6901337B617B69042BBD
S2144004607FF77DAF00BF1C37BD46BDE8F08F00BFAD
S21440047000120E4055204000F1024000A92E4000D8
S214400480010040203920400090B58BB002AFF860A4
S214400490B9607A603B60BB68FB612EE0FB691B7805
S2144004A0FB76FB7EFA68127A9B1A7B61FB685B7A66
S2144004B0FA7E9A421ED8FB685A687B69DB00134472
S2144004C03B61786839683B695B685B681A463B699C
S2144004D05B689B681C463B695B681B6800932346C9
S2144004E00A4CA0473B695B685A683B6B13447A6882
S2144004F013447B60FB690133FB61FB691B78002B6F
S214400500CCD100BF2437BD4690BD00BF211240006D
S21440051090B583B002AF0C20164B984700234FF49B
S21440052080724FF040511448144CA0471020114B95
S214400530984701234FF080524FF0205110480F4CFF
S214400540A047104B009370234FF0805210210C4868
S2144005500D4CA0474FF0805109480C4B984710204F
S2144005600B4B9847042110200A4B984700BF04378E
S214400570BD4690BD152B400000120E40AD224000F7
S21440058000140E405103400039274000E523400048
S214400590D50140000902400090B583B002AF144B2D
S2144005A09847144B9847144B9847144B9847012349
S2144005B000933223322212491248134CA04701239B
S2144005C0009364233222114911480F4CA04702235E
S2144005D00093C82332220F490F480B4CA0474FF0D8
S2144005E080524FF020510D480D4B9847F7E700BF1B
S2144005F0851E4000C119400005034000110540001B
S21440060074AA440034574000890440007CAA440041
S214400610AC1F43008CAA440068AA440000140E4055
S2144006207120400080B483B000AF78607B68072BB1
S21440063025D801A252F823F0590640005F06400034
S214400640650640006B0640006F064000730640009B
S214400650770640007B0640004FF4FA4310E04FF424
S21440066000430DE04FF400430AE0084B08E0084B17
S21440067006E0084B04E0074B02E0064B00E0002390
S21440068018460C37BD465DF8047B704700093D00B0
S21440069000127A00001BB70080B500AF0620054B5D
S2144006A09847024613469B0013449A001344184644
S2144006B080BD00BF2506400080B500AF024B98477E
S2144006C003465B08184680BD9906400080B483B058
S2144006D000AF78607B6880221A6000BF0C37BD464A
S2144006E05DF8047B704780B483B000AF78607B6869
S2144006F05B6843F001027B685A6000BF0C37BD461A
S2144007005DF8047B704780B483B000AF78607B6848
S2144007105B6823F002027B685A6000BF0C37BD4618
S2144007205DF8047B704780B483B000AF78607B6828
S2144007305B6823F004027B685A6000BF0C37BD46F6
S2144007405DF8047B704780B483B000AF78607B6808
S2144007505B6803F00403002B01D0012300E0002374
S21440076018460C37BD465DF8047B704780B483B0AE
S21440077000AF78607B685B6843F010027B685A6025
S21440078000BF0C37BD465DF8047B704780B483B02D
S21440079000AF78607B685B6823F080027B685A60B5
S2144007A000BF0C37BD465DF8047B704780B483B00D
S2144007B000AF78600B467B807A887B68DA6000BF43
S2144007C00C37BD465DF8047B704780B483B000AFFD
S2144007D078607B689B689BB218460C37BD465DF8D0
S2144007E0047B704780B483B000AF78607B681B6939
S2144007F003F00203002B01D0012300E0002318463B
S2144008000C37BD465DF8047B704780B483B000AFBC
S21440081078607B681A6940F20123134040F2012257
S214400820934201D1012300E0002318460C37BD4611
S2144008305DF8047B7047000080B582B000AF7860FA
S2144008400B46FB70FB789BB219467868024B98477C
S21440085000BF0837BD4680BDAD07400080B582B0BA
S21440086000AF786039607868044B98470346DAB240
S2144008703B681A7000BF0837BD4680BDCB074000B6
S21440088080B582B000AF78607868104B984778683B
S2144008900F4B984778680F4B984778680E4B9847A9
S2144008A078680E4B9847002178680D4B98477868D3
S2144008B00C4B984778680C4B9847002178680B4B50
S2144008C0984700BF0837BD4680BD00BF191340009B
S2144008D0CD064000E70640006D0740008D0740000B
S2144008E05513400007074000270740008913400083
S2144008F090B587B000AFF860B9603B601346FB71B7
S214400900204B98470346194638681F4B984703467E
S214400910FB82BB68196800230022F8681B4CA0477E
S214400920BB681B6808221946F868194B9847BB688D
S2144009301B68FA8AD2B21946F868164B9847BB68C5
S2144009401B6808221946F868134B9847BB68196815
S214400950FB795B08DBB21A46F868104B9847BB68D1
S2144009601968FB7903F00103002B0CBF0123002319
S214400970DBB21A46F8680A4B984700BF1C37BD469C
S21440098090BD00BFB9064000C91540006316400040
S2144009907F15400005164000D91440003914400029
S2144009A08914400080B582B000AF786039607868BE
S2144009B0104B98470346002B0AD03B681B680F2B0A
S2144009C014D83B681B68194678680B4B98470DE06F
S2144009D03B681B68032B09D83B681B68012202FA58
S2144009E003F3DB4319467868034B984700BF083744
S2144009F0BD4680BD470740005513400080B588B0CF
S214400A0000AFF860B9607A6043F69823FB61002334
S214400A10BB6121E043F69823FB6107E0FB695A1E61
S214400A20FA61002B02D16FF0020319E0F8680E4B12
S214400A3098470346002BF1D0BA68BB6913441B782D
S214400A40FB75FB7D1946F868084B9847BB69013330
S214400A50BB617B68013B7B607B68002BDAD100235F
S214400A6018462037BD4680BDE5074000390840009F
S214400A7080B588B000AFF860B9607A6043F69823D6
S214400A80FB610023BB6138E043F69823FB6107E037
S214400A90FB695A1EFA61002B02D16FF0020330E068
S214400AA0F8681A4B98470346002BF1D0FF21F868A8
S214400AB0174B984743F69823FB6107E0FB695A1E9D
S214400AC0FA61002B02D16FF002031AE0F868114B6E
S214400AD098470346002BF1D007F117031946F868EC
S214400AE00D4B9847BA68BB691344FA7D1A70BB69C8
S214400AF00133BB617B68013B7B607B68002BC3D1C5
S214400B00002318462037BD4680BD00BFE50740009D
S214400B10390840000B0840005D08400080B483B0B0
S214400B2000AF78607B6801221A6000BF0C37BD4674
S214400B305DF8047B704780B483B000AF786039605E
S214400B407B683A685A6100BF0C37BD465DF8047B47
S214400B507047000090B583B000AF06200A4B984718
S214400B60002303222C210948094CA04700237B6020
S214400B7002E07B6801337B607B68FE2BF9D900BFBF
S214400B800C37BD4690BD00BF7D244000008000402D
S214400B90B913400080B584B000AF78603960062055
S214400BA0094B98473A6879680848094B98470023A4
S214400BB0FB6002E0FB680133FB60FB68FE2BF9D963
S214400BC000BF1037BD4680BD4D2440000080004029
S214400BD0FD09400090B587B000AF0346B9607A6023
S214400BE0FB730620144B9847FB7B99B200230322E5
S214400BF01248134CA04700237B6102E07B69013317
S214400C007B617B69FE2BF9D97B68002B10D00620D0
S214400C100C4B98477A68B96808480B4B98470023AE
S214400C207B6102E07B6901337B617B695E2BF9D98E
S214400C3000BF1C37BD4690BD7D244000008000406C
S214400C40B91340004D244000FD09400080B584B0F3
S214400C5000AF0023BB608123BB7000237B7003235F
S214400C60FB6048E0BB1C01221946FB20264B9847F8
S214400C70BB780133DBB2BB7000237B6002E07B684D
S214400C8001337B607B68FE2BF9D900220021D320FC
S214400C901D4B984706201D4B9847FB1C01221946C2
S214400CA01B481C4B984700237B6002E07B6801335F
S214400CB07B607B68FE2BF9D9FB781A46FB68013BC4
S214400CC0DB0002FA03F31A46BB681343BB607B1C87
S214400CD001221946FB200C4B984700237B6002E01C
S214400CE07B6801337B607B6840F6FE729342F7D99F
S214400CF0FB68013BFB60FB68002BB3D1BB68184622
S214400D001037BD4680BD00BFD50B40004D24400087
S214400D1000800040710A400080B485B000AF786023
S214400D200023FB600CE00023FB6002E0FB6801331D
S214400D30FB60FB68074A9342F8D9FB680133FB60C7
S214400D40FA687B689A42EED300BF1437BD465DF81A
S214400D50047B70479F86010080B487B000AFF86080
S214400D60B9607A603B60FB681B68B3F5A07F03D32D
S214400D70FB6840F23F121A607B681B68B3F5A07FA1
S214400D8003D37B6840F23F121A60BB681B68B3F51A
S214400D90F07F03D3BB6840F2DF121A603B681B68E3
S214400DA0B3F5F07F03D33B6840F2DF121A60FB686E
S214400DB01A687B681B689A4209D9FB681B687B6186
S214400DC07B681A68FB681A607B687A691A60BB6839
S214400DD01A683B681B689A4209D9BB681B687B61E6
S214400DE03B681A68BB681A603B687A691A6000BF3D
S214400DF01C37BD465DF8047B7047000080B584B064
S214400E0000AF0346FB71FB79002B02D0E823FB734F
S214400E1001E04823FB7307F10F03012219463620F1
S214400E20024B984700BF1037BD4680BDD50B4000EB
S214400E3090B587B000AF0446084611461A4623468A
S214400E40FB800346BB800B467B8013463B800023DB
S214400E507B6104237B61FB887B827A88FB88134412
S214400E609BB2013B9BB23B82BB88FB813A88BB88E6
S214400E7013449BB2013B9BB2BB8107F112035B78E4
S214400E803B7207F112031B787B7207F110035B7805
S214400E90BB7207F110031B78FB7207F108037A69EF
S214400EA019462A20134B9847002200210020114B58
S214400EB0984707F10E035B783B7207F10E031B78E9
S214400EC07B7207F10C035B78BB7207F10C031B784F
S214400ED0FB7207F108037A6919462B20054B9847A1
S214400EE0002200210020034B984700BF1C37BD4618
S214400EF090BD00BFD50B400090B589B002AF78607A
S214400F000323FB604348444B984707F10C010023FA
S214400F100093424B03223F48414CA0470022032106
S214400F203C48404B984707F10C03194639483E4B1E
S214400F30984738483D4B9847012136483C4B9847A0
S214400F400022002101203B4B9847C8203A4B984747
S214400F50002200211120374B9847C820364B98472F
S214400F60364B984778617B6949F28842934201D074
S214400F7001234AE04823FB7407F113030122194674
S214400F8036202C4B984764202B4B98470423FB7401
S214400F9007F1130301221946CF20264B98476420B9
S214400FA0254B98470623FB7407F113030122194685
S214400FB03A20204B984764201F4B98470022002138
S214400FC013201C4B984764201B4B98471C4B984754
S214400FD06420194B984700201A4B98476420164BBC
S214400FE098477B681B689AB27B685B689BB2002117
S214400FF00020154CA0477B689B681846134B9847C3
S21440100000210020124B9847002318461C37BD4647
S21440101090BD00BF0080004081084000002D310197
S214401020F1084000D9144000A50940001D0B4000BF
S214401030370B4000D50B4000190D40004D0C4000CA
S21440104055104000FD0D4000310E40006D10400030
S214401050C110400080B500AF002200212920024B7D
S214401060984700BF80BD00BFD50B400080B485B018
S21440107000AF78600023FB6016E0FB685A1CFA60FD
S2144010807A68120CD1B20D4AD154FB685A1CFA60E9
S2144010907A68120AD1B2094AD154FB685A1CFA60DF
S2144010A07A68D1B2054AD154FB68B3F5707FE4D371
S2144010B000BF1437BD465DF8047B70475804402097
S2144010C080B584B000AF03460A46FB801346BB801B
S2144010D00023FB600423FB60BB1D5B783B72BB1D9B
S2144010E01B787B72BB1D5B78BB72BB1D1B78FB728B
S2144010F007F10803FA6819462A20114B9847002240
S214401100002100200E4B98473B1D5B783B723B1DF1
S2144011101B787B723B1D5B78BB723B1D1B78FB725A
S21440112007F10803FA6819462B20054B984700221A
S21440113000210020024B984700BF1037BD4680BDB7
S214401140D50B400090B587B000AFF860B9607A60C4
S2144011503B603B463A1D07F1080107F10C002A4C5C
S214401160A047FB6898B2BB6899B27B689AB2FB68A6
S2144011709BB2D31A9BB201339CB23B689AB2BB680F
S2144011809BB2D31A9BB201339BB222461F4CA04758
S2144011901F4B98477A68FB68D31A01333968BA6898
S2144011A08A1A013202FB03F33B613B69194AA2FBF0
S2144011B003231B0A7B6104E04FF470711648174BFB
S2144011C098477B695A1E7A61002BF5D13969114BD5
S2144011D0A3FB01231A0A13469B0013449B01CA1A19
S2144011E013465B00134419460B480C4B98474FF484
S2144011F0F0734FF4A07200210020044CA04700BFBB
S2144012001C37BD4690BD00BF590D4000310E400012
S214401210550B4000CDCCCCCC58044020950B40001C
S21440122090B58BB000AFF860B9607A603B60FB6801
S2144012303B62BB68FB61FA687B681344013BBB6159
S214401240BA683B681344013B7B6107F1140307F11E
S214401250180207F11C0107F120001B4CA0473B6A0F
S21440126098B2FB6999B2BB699AB23B6A9BB2D31AF1
S2144012709BB201339CB27B699AB2FB699BB2D31A8C
S2144012809BB201339BB22246104CA047BA693B6AD8
S214401290D31A7969FA698A1A02FB03F37B627A6A7F
S2144012A013465B0013441A46B96B2C20084B9847EC
S2144012B04FF4F0734FF4A07200210020034CA04777
S2144012C000BF2C37BD4690BD590D4000310E400042
S2144012D0D50B400080B483B000AF78607B685B6815
S2144012E003F00203002B01D0012300E00023184640
S2144012F00C37BD465DF8047B7047000080B582B071
S21440130000AF78607868034B984700BF0837BD4603
S21440131080BD00BF152B400080B582B000AF78601E
S2144013207B68094A934203D11520084B984706E04C
S2144013307B68074A934202D12A20044B984700BF55
S2144013400837BD4680BD00BF00800040FD1240000B
S2144013500080054080B483B000AF786039607B6819
S2144013605B6823F470227B685A607B685A683B68E7
S2144013701B0403F470231A437B685A6000BF0C3783
S214401380BD465DF8047B704780B483B000AF78609C
S21440139039607B685B6823F07F427B685A607B6875
S2144013A05A683B681B061A437B685A6000BF0C3776
S2144013B0BD465DF8047B704780B584B000AF78606A
S2144013C0084611461A4603467B800B467B701346FA
S2144013D03B7043F69823FB6006E0FB685A1EFA60B3
S2144013E0002B01D1012320E07B681B6903F0020338
S2144013F0002BF2D078680F4B98470346002B0ED050
S2144014007A887B781B0403F470231343BB603B78D5
S214401410002B06D0BB6843F08073BB6001E07B883E
S214401420BB607B68BA68DA60002318461037BD4652
S21440143080BD00BFD512400080B485B000AFF860D4
S214401440B9607A607B68002B0CD0FB68BA680C32B7
S21440145053F8223043F00101FB68BA680C3243F877
S21440146022100BE0FB68BA680C3253F8223023F0A7
S2144014700101FB68BA680C3243F8221000BF1437EB
S214401480BD465DF8047B704780B485B000AFF86019
S214401490B9607A607B68002B0CD0FB68BA680C3267
S2144014A053F8223043F00201FB68BA680C3243F826
S2144014B022100BE0FB68BA680C3253F8223023F057
S2144014C00201FB68BA680C3243F8221000BF14379A
S2144014D0BD465DF8047B704780B485B000AFF860C9
S2144014E0B9607A607B68042B18D1FB68BA680C3206
S2144014F053F8223023F00801FB68BA680C3243F8F0
S2144015002210FB68BA680C3253F8223043F00401CC
S214401510FB68BA680C3243F822102AE07B68002B3E
S21440152018D1FB68BA680C3253F8223023F0080111
S214401530FB68BA680C3243F82210FB68BA680C3273
S21440154053F8223023F00401FB68BA680C3243F8A3
S21440155022100EE07B68082B0BD1FB68BA680C3271
S21440156053F8223043F00801FB68BA680C3243F85F
S214401570221000BF1437BD465DF8047B704780B428
S21440158085B000AFF860B9607A60FB68BA680C3224
S21440159053F8223023F0F001FB68BA680C3243F867
S2144015A02210FB68BA680C3253F822207B6842EA65
S2144015B00301FB68BA680C3243F8221000BF1437A8
S2144015C0BD465DF8047B704780B485B000AF786058
S2144015D039603A687B6813445A1E7B68B2FBF3F363
S2144015E0FB60FB68002B02DDFB68FF2B02DD4FF043
S2144015F0FF3301E0FB681BB218461437BD465DF862
S214401600047B704780B485B000AFF860B96013467D
S214401610FB71FB79002B02D14FF0FF331BE0FB68D8
S214401620BA680C3253F8223023F47F41FB68BA681C
S2144016300C3243F82210FB68BA680C3253F822206A
S214401640FB791B029BB242EA0301FB68BA680C3284
S21440165043F82210002318461437BD465DF8047B35
S214401660704780B485B000AFF860B96011461A463E
S2144016700B46FB711346BB71FB68BA680C3253F8D5
S214401680223099B2FB68BA680C3243F82210FB68E5
S214401690BA680C3253F82220FB791B0403F47F030C
S2144016A0B97909060B4342EA0301FB68BA680C3273
S2144016B043F8221000BF1437BD465DF8047B7047E0
S2144016C080B582B000AF78607B68072B31D801A226
S2144016D052F823F031174000F5164000FD16400042
S2144016E0051740000D174000151740001D17400015
S2144016F0271740000020114B98471AE001200F4B57
S214401700984716E000200E4B984712E010200C4BEE
S21440171098470EE020200A4B98470AE03E210020DA
S214401720084B984705E03E210120064B984700E0CD
S21440173000BF00BF0837BD4680BD00BF51294000EE
S214401740BD2940002D2A400080B582B000AF7860A9
S2144017507B68072B26D801A252F823F07D1740005D
S21440176081174000811740009317400093174000B0
S214401770931740009317400093174000012312E050
S2144017800B4B98470346002B14BF01230023DBB2C4
S21440179009E0084B98470346002B14BF012300235B
S2144017A0DBB200E0002318460837BD4680BD00BFC8
S2144017B089294000A52A400080B483B000AF7860F5
S2144017C07B68072B25D801A252F823F0ED1740007E
S2144017D0F3174000F9174000FF1740000318400079
S2144017E0071840000B1840000F1840004FF4FA430B
S2144017F010E04FF400430DE04FF400430AE0084B7E
S21440180008E0084B06E0084B04E0074B02E0064BB6
S21440181000E0002318460C37BD465DF8047B704751
S21440182000093D0000127A00001BB70080B582B068
S21440183000AF0346FB7100BFFB791846054B98473F
S214401840034683F00103DBB2002BF5D100BF083717
S214401850BD4680BD4917400080B586B000AFF860F1
S2144018607A603B600B46FB727B68002B07D13B6877
S214401870002B04D1FB684FF470021A6019E0FB7A23
S21440188018460E4B984702467B68B2FBF3F37B61E3
S2144018907B693A6802FB03F37B613B68013B1A04B1
S2144018A0074B13407A68D2B2134343F47C52FB682A
S2144018B01A6000BF1837BD4680BD00BFB91740004C
S2144018C00000FF0780B582B000AF786039603B68A3
S2144018D0002B08D1094B9847094A7B681B6843F0A0
S2144018E00053936205E0064A7B681B6843F48033E6
S2144018F0D36100BF0837BD4680BD00BFC12A400047
S21440190000060E4080B582B000AF78607B68002B42
S21440191003D1054B9847034602E0044B98470346DD
S21440192018460837BD4680BDDD2A4000F92A4000EB
S21440193080B582B000AF0346FB71FB79033B042BB6
S21440194008D8FB791846064B9847FB791846054B4E
S214401950984700E000BF00BF0837BD4680BD00BFC7
S214401960C11640002D18400080B582B000AF7860A8
S21440197000BF7868044B98470346002BF9D00023F5
S21440198018460837BD4680BD0519400080B500AFF3
S2144019900620054B9847024613469B0013449A0080
S2144019A01344184680BD00BFB917400080B500AF4D
S2144019B0024B98470346184680BD00BF8D1940002D
S2144019C090B583B000AF1348134B98470620134B8F
S2144019D09847381D192301220621114CA0473B1D6C
S2144019E0002118460F4B984700200F4B984702207F
S2144019F00E4B984700200E4B98470E4B98470E4B81
S214401A00984703461846044B984700BF0C37BD46D8
S214401A1090BD00BF000E2707F92D40003119400049
S214401A2059184000C5184000691940005128400028
S214401A30CD284000912C4000AD19400080B400AF46
S214401A40BFF34F8FBFF36F8F094B0022C3F850226E
S214401A50074A074B5B6943F400335361BFF34F8F2C
S214401A60BFF36F8F00BFBD465DF8047B704700BF75
S214401A7000ED00E080B48BB000AF264BD3F880304A
S214401A80FB61FB695B0BC3F30E037B62FB6903F0F0
S214401A9007030433BB61FB69DB08C3F309037B61BF
S214401AA07B69BB60BB68B3FA83F37B607B68DBB261
S214401AB003F01F033B61BFF34F8F7B693B623A6A7B
S214401AC03B6902FA03F319467A6ABB6902FA03F3E2
S214401AD00B43FB600F4AFB68C2F860323B6A5A1EF3
S214401AE03A62002BEBD17B6A5A1E7A62002BE4D115
S214401AF0BFF34F8F074A074B5B6943F4803353610C
S214401B00BFF34F8FBFF36F8F00BF2C37BD465DF8D6
S214401B10047B704700ED00E080B582B000AF78608F
S214401B207868034B984700BF0837BD4680BD00BF66
S214401B30152B400080B500AF0A20084B98470B2075
S214401B40064B98470C20054B98471020034B984768
S214401B501120024B984700BF80BD00BF191B4000B4
S214401B6080B48DB000AF786039607B68FB623B68BC
S214401B70BB62FB6A7B627B6A5A09FB6A3B623B6AD2
S214401B8003F01F03012101FA03F3FA61BB61BB6A4C
S214401B907B61FB693B613A69374B13445B02FB60F0
S214401BA07B6903F00803002B03D0FB68BA695A66CA
S214401BB002E0FB68BA691A667B6903F01003002BE3
S214401BC004D0FB68BA69C3F8942003E0FB68BA699E
S214401BD0C3F890207B6903F02003002B03D0FB68FA
S214401BE0BA691A6502E0FB68BA695A657B6903F010
S214401BF0C003002B03D0FB68BA691A6202E0FB6898
S214401C00BA695A627B6903F08003002B04D0FB68F4
S214401C10BA69C3F8842003E0FB68BA69C3F8802039
S214401C207B6903F00103002B06D0FB681A6FBB6983
S214401C301A43FB681A6706E0FB681A6FBB69DB430A
S214401C401A40FB681A677B6903F00203002B06D034
S214401C50FB685A6FBB691A43FB685A6706E0FB6825
S214401C605A6FBB69DB431A40FB685A6700BF34377C
S214401C70BD465DF8047B70470707200080B48DB0F2
S214401C8000AF78600B46FB707B68FB62FB7887F89A
S214401C902B30FB6A7B627B6A3B623B6A5B09FB617B
S214401CA0FA69174B13445B02BB6197F82B30012B44
S214401CB009D1FB6A7B617B6903F01F0301229A40CE
S214401CC0BB691A610CE097F82B30002B08D1FB6AF1
S214401CD03B613B6903F01F0301229A40BB695A618E
S214401CE0FB6AFB60FB6803F01F0301229A40BB6956
S214401CF0C3F8A02000BF3437BD465DF8047B70476C
S214401D000707200080B48BB000AF78600B46FB70AE
S214401D107B687B62FB7887F823307B6AFB61FB69D4
S214401D20BB61BB695B097B617A69104B13445B02FC
S214401D303B6197F82330002B09D07B6AFB60FB6839
S214401D4003F01F0301229A403B691A6308E07B6A4E
S214401D50BB60BB6803F01F0301229A403B695A638D
S214401D6000BF2C37BD465DF8047B70470707200050
S214401D7080B48DB000AF78600B46FB707B68FB622A
S214401D80FB7887F82B30FB6A7B627B6A5A09FB6AD2
S214401D903B623B6A03F01F03012101FA03F3FA6139
S214401DA0BB6197F82B30FB75FB693B613A69234B67
S214401DB013445B02FB60FB7D013B032B2ED801A244
S214401DC052F823F0F91D40000B1E4000D51D400080
S214401DD0E71D4000FB68BA69C3F8C420FB68BA69CF
S214401DE0C3F8D0201FE0FB68BA69C3F8C420FB687C
S214401DF0BA69C3F8D42016E0FB68BA69C3F8C020B5
S214401E00FB68BA69C3F8D0200DE0FB68BA69C3F82E
S214401E10C020FB68BA69C3F8D42004E0FB68BA69FE
S214401E20C3F8B42003E0FB68BA69C3F8B02000BF2B
S214401E303437BD465DF8047B704700BF0707200077
S214401E4080B400AFBFF34F8FBFF36F8F0C4A0C4B7D
S214401E50D3F8903223F00103C2F89032084A084B78
S214401E60D3F8943223F00103C2F89432BFF34F8F75
S214401E70BFF36F8F00BFBD465DF8047B704700BF61
S214401E8000ED00E098B500AF4C4B4FF400425A606E
S214401E904B4B98474B4B98474B4B4C4A5A604A4B98
S214401EA04B4A5A604B4B98474B4B9847012148202A
S214401EB04A4B984701214820494B984700210B2020
S214401EC0464B984788210B20464B984702210B20CB
S214401ED0454B984700234FF400524FF0605143481B
S214401EE0434CA04700234FF080424FF060513F489C
S214401EF03F4CA0470123FF224FF000613B483C4C3B
S214401F00A04701233F224FF000613A48384CA04793
S214401F1001234FF4C0324FF000613748344CA0479D
S214401F2001234FF480724FF000613048304CA04798
S214401F3001234FF400624FF000612C482C4CA04720
S214401F4001234FF400224FF000612C48284CA04754
S214401F5000234FF400724FF080512448244CA04791
S214401F604FF400712148264B98474FF0805174201B
S214401F70244B98474FF080517520224B98474FF09E
S214401F80805176201F4B98474FF080517B201D4B49
S214401F9098474FF0605118201A4B98474FF06051C1
S214401FA00620184B98474FF060515320154B9847E2
S214401FB05320154B984700BF98BD00BF50180E40A1
S214401FC03D1A4000751A4000000C0E400C08005A9E
S214401FD00C07005A411E4000351B40007D1C400047
S214401FE0051D4000611B4000711D400000120E4060
S214401FF0AD22400000160E40000E0E4000140E406B
S21440200039204000AD2440004D24400080B485B0C7
S21440201000AFF860B9607A607B68002B03D0FB683D
S214402020BA685A6602E0FB68BA681A6600BF143798
S214402030BD465DF8047B704780B483B000AF7860DF
S21440204039607B683A681A6300BF0C37BD465DF856
S214402050047B704780B483B000AF786039607B689B
S2144020603A685A6300BF0C37BD465DF8047B70473C
S21440207080B487B000AFF860B9607A60BB68B3F1EF
S214402080405F03D0BB68B3F1605F03D1FB689B6BD6
S2144020907B6102E0FB68DB6B7B617A697B6813409F
S2144020A0002B01D1002300E0012318461C37BD4613
S2144020B05DF8047B704780B487B000AFF860B960C5
S2144020C07A60FB687A685A64BB68B3F1C05F4AD0EE
S2144020D0B3F1C05F08D8B3F1006F16D0B3F1805F9C
S2144020E02CD0002B69D064E0B3F1205F65D0B3F10B
S2144020F0205F03D8B3F1005F4AD05AE0B3F1405FA7
S2144021005BD0B3F1605F58D053E0FB681B6F7B61D8
S214402110FB681A6F7B68D9437B690B401A40FB68A3
S2144021201A67FB685B6F7B61FB685A6F7B68D943B5
S2144021307B690B401A40FB685A673AE0FB681B6FA6
S2144021407B617A687B691A43FB681A67FB685B6F3A
S2144021507B61FB685A6F7B68D9437B690B401A40AA
S214402160FB685A6725E0FB681B6F7B61FB681A6F4C
S2144021707B68D9437B690B401A40FB681A67FB684B
S2144021805B6F7B617A687B691A43FB685A6710E02D
S214402190FB681B6F7B617A687B691A43FB681A672A
S2144021A0FB685B6F7B617A687B691A43FB685A679A
S2144021B000BFFB687A685A6000E000BF1C37BD4627
S2144021C05DF8047B7047000080B584B000AFF860CF
S2144021D0B9607A60B968F868194B98477B6803F02D
S2144021E001031A46B968F868164B98477B6803F0AF
S2144021F00A03002B03D0FB68BA681A6202E0FB6849
S214402200BA685A627B6803F00203002B04D0FB686E
S214402210BA68C3F8802008E07B6803F00803002B08
S21440222003D0FB68BA68C3F88420FB68BA685A6172
S214402230FB68BA681A6000BF1037BD4680BD00BF55
S214402240012440000D20400080B584B000AFF86007
S214402250B9607A603B60B968F868124B9847BA69CB
S214402260B968F868104B98473B68002B03D0FB686A
S214402270BA681A6502E0FB68BA685A657B68002B44
S21440228003D0FB68BA681A6302E0FB68BA685A6310
S214402290FB68BA681A61FB68BA681A6000BF1037F4
S2144022A0BD4680BD012440000D20400090B587B05B
S2144022B002AFF860B9607A603B60BB68B3F1005F1C
S2144022C016D0B3F1005F09D8B3F1805F10D0B3F1F8
S2144022D0C05F0DD0B3F1006F0AD03DE0B3F1405F70
S2144022E01AD0B3F1605F17D0B3F1205F0ED033E061
S2144022F07A68B968F8681C4B98473B6803F0010356
S2144023001A467968F868194B984727E03A6879681A
S214402310F868174B984721E0BB68B3F1605F0CBF85
S21440232001230023DBB21A463B6803F00403002B6C
S21440233014BF01230023DBB219463B6803F00103B8
S214402340002B14BF01230023DBB200930B467968B1
S214402350F868084CA04701E0002300E00123184637
S2144023601437BD4690BD00BFB72040000D2040004A
S214402370C92140004922400080B485B000AFF860D3
S214402380B9607A607B6803F01003002B20D0FB68AE
S214402390BA68C3F8B0207B6803F02003002B04D053
S2144023A0FB68BA68C3F8D42003E0FB68BA68C3F891
S2144023B0D0207B6803F04003002B04D0FB68BA684B
S2144023C0C3F8C02008E0FB68BA68C3F8C42003E03E
S2144023D0FB68BA68C3F8B42000BF1437BD465DF842
S2144023E0047B704780B483B000AF786039607B6808
S2144023F03A681A6400BF0C37BD465DF8047B7047E8
S21440240080B483B000AF786039607B683A685A64BD
S21440241000BF0C37BD465DF8047B704780B483B080
S21440242000AF78607B68DB6C18460C37BD465DF8BD
S214402430047B704780B483B000AF78607B689B6C49
S21440244018460C37BD465DF8047B704780B584B0AF
S21440245000AF78607868084B9847F8607B6803F070
S2144024601F03012202FA03F31A46FB681A6300BFF1
S2144024701037BD4680BD00BF5D26400080B584B0A5
S21440248000AF78607868084B9847F8607B6803F040
S2144024901F03012202FA03F31A46FB685A6300BF81
S2144024A01037BD4680BD00BF5D26400090B587B062
S2144024B002AF786039607868634B9847F8603B684D
S2144024C003F0F043B3F1005F67D0B3F1005F09D883
S2144024D0B3F1805F2BD0B3F1C05F43D0B3F1006F50
S2144024E00AD0A9E0B3F1405F7ED0B3F1605F7BD005
S2144024F0B3F1205F6CD09FE07B6803F01F0301229E
S21440250002FA03F31A464FF00061F8684F4B9847BB
S2144025107B6803F01F03012202FA03F319463B6867
S21440252003F001031A46F868494B984786E07B68F3
S21440253003F01F03012202FA03F31A464FF08051BC
S214402540F868424B98477B6803F01F03012202FA63
S21440255003F319463B6803F001031A46F8683C4B00
S21440256098476BE07B6803F01F03012202FA03F3EF
S2144025701A464FF0C051F868344B98477B6803F0D2
S2144025801F03012202FA03F319463B6803F00103D6
S2144025901A46F8682E4B984750E07B6803F01F03B6
S2144025A0012202FA03F31A464FF00051F868274B0F
S2144025B098477B6803F01F03012202FA03F319468B
S2144025C03B6803F001031A46F868214B984735E00C
S2144025D07B6803F01F03012202FA03F33A681946A8
S2144025E0F8681C4B984729E07B6803F01F030122DC
S2144025F002FA03F319463B6803F06053B3F1605F99
S2144026000CBF01230023DBB21A463B6803F00403E9
S214402610002B14BF01230023DBB218463B6803F0AF
S2144026200103002B14BF01230023DBB200930346B3
S214402630F868094CA04701E0002300E00123184653
S2144026401437BD4690BD00BF5D264000B720400011
S2144026500D204000C92140004922400080B485B08A
S21440266000AF78607B685A09054B13445B02FB60F9
S214402670FB6818461437BD465DF8047B704700BFBC
S2144026800707200080B584B000AF7860396078686E
S214402690264B9847F8607868254B98470246FB6873
S2144026A01340FB60FB68002B3CD00023BB6034E04B
S2144026B0204ABB681B0113441A683B689A4226D1DD
S2144026C01C4ABB681B01134404331A68FB6813405A
S2144026D0002B1CD0174ABB681B0113440C331B68E5
S2144026E01449BA6812010A4410681249BA681201BD
S2144026F00A4404321268114698470E4ABB681B01CA
S214402700134404331B68DB43FA681340FB60BB6822
S2144027100133BB60BB68062B03D8FB68002BC7D1D0
S21440272000E000BF00BF1037BD4680BD1D244000FE
S214402730352440001808402080B586B000AFF860C9
S214402740B9607A603B60214B1B68062B01D9012398
S21440275038E00023FB7511E0FB7D1B011C4A134447
S2144027603B613B691A68BB689A4204D13B695A6828
S2144027707B689A4208D0FB7D0133FB75FA7D134B8C
S2144027801B689A42E8D900E000BF3B69BA681A6005
S2144027903B697A685A603B693A689A603B693A6A2C
S2144027A0DA60FA7D094B1B6801339A4204D1074B25
S2144027B01B680133054A13603A687968F868054B28
S2144027C09847002318461837BD4680BD88084020E5
S2144027D0180840207923400080B500AF0A210248FF
S2144027E0024B984700BF80BD000E0E408526400035
S2144027F080B500AF0B210248024B984700BF80BD12
S21440280000100E408526400080B500AF0C210248DF
S214402810024B984700BF80BD00120E408526400000
S21440282080B500AF10210248024B984700BF80BDDC
S21440283000140E408526400080B500AF11210248A6
S214402840024B984700BF80BD00160E4085264000CC
S21440285080B483B000AF78607B68013B032B1AD806
S21440286001A252F823F000BF792840007F2840009C
S214402870872840008F28400000237B600EE04FF4FE
S21440288080737B600AE04FF440737B6006E04FF451
S21440289000737B6002E000237B6000BF0A490A4B5E
S2144028A01B6B23F440727B6813430B6300BF064BDD
S2144028B09B6E03F00803002BF9D000BF0C37BD46D3
S2144028C05DF8047B704700BF00060E4080B485B0BC
S2144028D000AF78601D491D4B1B6B23F070027B6870
S2144028E013430B634FF48053FB6007E0FB68002BF9
S2144028F001D1012323E0FB68013BFB60134B9B6E39
S21440290003F00803002BF1D0104A104B1B6B23F04A
S214402910030343F0020313634FF48053FB6007E066
S214402920FB68002B01D1012309E0FB68013BFB60FB
S214402930064B9B6E03F00803002BF1D0002318468D
S2144029401437BD465DF8047B704700BF00060E4056
S21440295080B483B000AF78607B68012B05D107490F
S214402960064B9A68064B13438B60044B054A1A6025
S21440297000BF0C37BD465DF8047B704710180E400C
S214402980000010A5080000A580B400AF094B5B69A5
S21440299003F08003002B07D0074B9B6E03F08003A9
S2144029A0002B01D0012300E000231846BD465DF809
S2144029B0047B704710180E4000060E4080B483B06B
S2144029C000AF78601549154B1A6A154B13430B62D6
S2144029D000BF124B9B6E03F40033002BF9D00F4917
S2144029E00E4B1A6A0F4B13407A68134343F45C133A
S2144029F00B6200BF094B9B6E03F40033002BF9D0EB
S214402A000649064B1A6A084B134043F45C130B62A4
S214402A1000BF0C37BD465DF8047B704700060E408D
S214402A20080037008FFFC8FFFFFFC8FE80B483B0A2
S214402A3000AF786039607B68002B08D01349134B91
S214402A401B6A134A1A40134B13430B6218E00F4994
S214402A500E4B1A6A104B13403A68120292B21A434F
S214402A600E4B13430B6200BF084B9B6E03F00103F3
S214402A70002BF9D00549054B1A6A094B13430B62E4
S214402A8000BF0C37BD465DF8047B704700060E401D
S214402A90FCFFC8FE02003701FCFFC8FF01003700FC
S214402AA00000370180B400AF044B9B6E03F48033C4
S214402AB01846BD465DF8047B704700BF00060E40D2
S214402AC080B400AF044B4FF000529A6200BFBD4640
S214402AD05DF8047B704700BF00060E4080B400AF30
S214402AE0044B9B6E03F002031846BD465DF8047B1C
S214402AF0704700BF00060E4080B400AF044B9B6E8C
S214402B0003F040031846BD465DF8047B704700BF9F
S214402B1000060E4080B485B000AF78600B4A7B68F4
S214402B2003F07F03C2F80C31084BD3F80C3143F066
S214402B301023FB60054AFB68C2F80C310023184698
S214402B401437BD465DF8047B704700BF00060E4054
S214402B5080B483B000AFEFF310837B607B68002BBC
S214402B600CBF01230023DBB23B6072B6BFF35F8F1E
S214402B70044B00221A703B6818460C37BD465DF879
S214402B80047B70470A00402080B483B000AF786072
S214402B907B68002B14BF01230023DBB218460C379A
S214402BA0BD465DF8047B704780B582B000AF786064
S214402BB07868074B98470346002B05D0054B012203
S214402BC01A70BFF35F8F62B600BF0837BD4680BD40
S214402BD0892B40000A00402080B584B000AF1E4BD1
S214402BE0FB601E4BBB60FA68BB689A420CD007E09D
S214402BF0BB681A1DBA60FA68111DF96012681A603F
S214402C00BB68174A9342F3D3164BBB6004E0BB68DD
S214402C101A1DBA6000221A60BB68134A9342F6D364
S214402C20124BFB60124AFB6823F07F039360114B04
S214402C3098477860104A104B1B6843F47003136043
S214402C40BFF34F8FBFF36F8F78680C4B98470C4B92
S214402C5098470C4B9847FEE7C4AA44000000402023
S214402C603C0440203C044020C00840200000400077
S214402C7000ED00E0512B400088ED00E0A92B40001D
S214402C80B93140009905400080B400AFFEE700002F
S214402C9080B400AF524B1B6B03F00303012B14D0E0
S214402CA0012B02D3022B38D07AE04E4B5B6903F0FF
S214402CB08003002B04D04C4B4FF400421A606FE068
S214402CC0494B4FF4FA421A606AE0454B1B6A03F0E0
S214402CD08073002B03D0444B444A1A6060E0424B5A
S214402CE0434A1A603E4B1B6A03F07003102B04D015
S214402CF0202B08D0002B0ED00EE03B4B1B685B0011
S214402D00394A136008E0384B1A6813465B00134490
S214402D10354A136000E000BF42E0314B1B6A03F0C7
S214402D208073002B03D0304B304A1A601CE02E4B89
S214402D302F4A1A602A4B1B6A03F07003102B04D0EC
S214402D40202B08D0002B0ED00EE0274B1B685B00D4
S214402D50254A136008E0244B1A6813465B00134468
S214402D60214A136000E000BF1D4B1B6B03F00303BA
S214402D70022B14D11A4B9B6A1B0CC3F30A03013374
S214402D80194A126802FB03F3174A1360144B9B6AF6
S214402D90DBB2154A1268B2FBF3F3134A136000BF66
S214402DA00F4B1B6B03F07003702B08D10E4B1B6848
S214402DB0104AA2FB03235B080B4A13600AE0084B49
S214402DC01B6B1B0903F00703074A126822FA03F33A
S214402DD0054A136000BFBD465DF8047B704700BFE0
S214402DE000060E4010180E400C004020001BB70096
S214402DF000093D00ABAAAAAA80B483B000AF7860B1
S214402E007B681D4A934204D81C4B4FF080621A6080
S214402E102BE07B681A4A934203D8184B194A1A602B
S214402E2023E07B68184A934203D8144B174A1A602B
S214402E301BE07B68164A934203D8104B154A1A602B
S214402E4013E07B68144A934204D80C4B4FF004229C
S214402E501A600AE07B68114A934203D8074B104A2F
S214402E601A6002E0054B0F4A1A6000BF0C37BD4699
S214402E705DF8047B704700BFBFF35E01000C0E4058
S214402E807FE7BD02000100043FDB1C040002000493
S214402E90FFCE7B0500030004BFC2DA067FB63908C2
S214402EA0000500040006000453B94AB9002908BFCB
S214402EB000281CBF4FF0FF314FF0FF3000F07AB9CA
S214402EC0ADF1080C6DE904CE00F006F8DDF804E03C
S214402ED0DDE9022304B070472DE9F0478C460D46E5
S214402EE00446089E002B51D18A4217466DD9B2FA45
S214402EF082FEBEF1000F0BD0CEF1200C01FA0EF58B
S214402F0020FA0CFC02FA0EF74CEA050C00FA0EF416
S214402F104FEA174A250CBCFBFAF81FFA87F90AFB5A
S214402F2018CC45EA0C4508FB09F3AB420AD9ED1923
S214402F3008F1FF3280F02381AB4240F22081A8F1B5
S214402F4002083D44ED1AA4B2B5FBFAF00AFB105550
S214402F5044EA054400FB09F9A14509D9E41900F102
S214402F60FF3380F00A81A14540F2078102383C4495
S214402F70A4EB090440EA08400021002E61D024FA60
S214402F800EF4002334607360BDE8F0878B4207D9A7
S214402F90002E54D0002186E821000846BDE8F08780
S214402FA0B3FA83F1002940F08E80AB4202D38242CE
S214402FB000F2FA80841A65EB03050120AC46002E29
S214402FC03FD086E81010BDE8F08712B90127B7FB5E
S214402FD0F2F7B7FA87FEBEF1000F34D1EB1B3A0C7E
S214402FE01FFA87FC0121B3FBF2F8250C02FB1833CD
S214402FF045EA03450CFB08F3AB4207D9ED1908F147
S214403000FF3002D2AB4200F2D1808046ED1AA3B226
S214403010B5FBF2F002FB105543EA05440CFB00FCFE
S214403020A44507D9E41900F1FF3302D2A44500F2C3
S214403030B8801846A4EB0C0440EA08409DE73146A9
S2144030403046BDE8F087CEF1200405FA0EF307FAC5
S2144030500EF720FA04F83A0C25FA04F448EA030876
S214403060B4FBF2F14FEA184502FB11441FFA87FC05
S21440307045EA044501FB0CF3AB4200FA0EF409D9CD
S214403080ED1901F1FF3080F08A80AB4240F2878034
S21440309002393D44EB1A1FFA88F5B3FBF2F002FB07
S2144030A0103345EA034500FB0CF3AB4207D9ED1954
S2144030B000F1FF386FD2AB426DD902383D44EB1A6F
S2144030C040EA01418FE7C1F1200722FA07F88B401A
S2144030D005FA01F448EA030320FA07FE4FEA134CC8
S2144030E0FD404EEA040EB5FBFCF94FEA1E440CFBCD
S2144030F019551FFA83F844EA054509FB08F4AC4223
S21440310002FA01F200FA01FA08D9ED1809F1FF3087
S21440311043D2AC4241D9A9F102091D442D1B1FFAE6
S2144031208EFEB5FBFCF00CFB10554EEA054400FB4A
S21440313008F8A04507D9E41800F1FF3529D2A04584
S21440314027D902381C4440EA0940A4EB0804A0FBF7
S21440315002894C45C6464D4615D312D056B1BAEBF9
S2144031600E0364EB050404FA07F7CB401F43CC403C
S214403170376074600021BDE8F0871846F8E6904650
S214403180E0E6C245EAD2B8EB020E69EB0305013829
S214403190E4E72846D7E7404691E78146BEE7014642
S2144031A078E702383C4445E7084608E7A8F10208B5
S2144031B03D442BE7704700BF70B50F4E0F4D761B52
S2144031C0B61018BF002405D0013455F8043B984784
S2144031D0A642F9D10A4E0B4D761B47F05DFCB61061
S2144031E018BF002406D0013455F8043B9847A64241
S2144031F0F9D170BD70BD00BFA4AA4400A4AA440083
S214403200ACAA4400A4AA4400024B13B1024800F002
S21440321005B87047000000002932400000230146F0
S2144032201A46184600F01EB838B50A4C0A4D641BBC
S214403230A4100AD004F18043013B05EB8305013C12
S21440324055F804399847002CF9D1BDE8384047F086
S2144032502DBC00BFBCAA4400B8AA4400704700BFBB
S214403260704700BF2DE9F8432C4D0646286898461F
S2144032700F469146FFF7F2FF294B1C68D4F84831B9
S214403280002B3ED05A681F2A1CDC02F1010E76B194
S21440329003EB82010124C1F88890D3F8880194405A
S2144032A02043022EC3F88801C1F8088123D0023299
S2144032B0C3F804E0286843F82270FFF7D1FF0020E7
S2144032C0BDE8F883174B0BB34FF4C870AFF30080DC
S2144032D00346D8B1D4F848210260002141600A462E
S2144032E0C4F848014FF0010EC0F88811C0F88C11A0
S2144032F0002EDCD0CCE7D3F88C110C43C3F88C41BD
S214403300D5E704F5A673C4F84831BBE72868FFF74D
S214403310A7FF4FF0FF30BDE8F88300BF38044020D9
S21440332094AA440000000000FFFFFFFFFFFFFFFFDE
S214403330FF000000FFFFFFFFFFFFFFFFFFFFFFFF55
S214403340FFFFFFFFFFFF000000FFFFFF000000FF42
S214403350FFFFFFFFFFFFFFFFFFFFFFFFFFFF000036
S21440336000FFFFFF000000FFFFFFFFFFFFFFFFFF24
S214403370FFFFFFFFFFFF000000FFFFFF000000FF12
S214403380FFFFFFFFFFFFFFFFFFFFFFFFFFFF000006
S21440339000FFFFFF000000FFFFFFFFFFFFFFFFFFF4
S2144033A0FFFFFF000000FFFFFFFFFFFFFFFFFF00E4
S2144033B00000FFFFFFFFFFFFFFFFFF0000000000D1
S2144033C000000000000000000000FFFFFFFFFFFFBE
S2144033D0FFFFFF000000FFFFFFFFFFFFFFFFFF00B4
S2144033E00000FFFFFFFFFFFF000000FFFFFFFFFFA3
S2144033F0FFFFFFFFFFFFFFFFFFFF000000FFFFFF95
S214403400000000FFFFFFFFFFFFFFFFFFFFFFFFFF84
S214403410FFFF000000FFFFFFFFFFFFFFFFFFFFFF74
S214403420FFFFFFFFFFFFFFFFFFFFFFFFFFFFFFFF67
S214403430FFFFFFFFFFFFFFFFFFFFFFFFFFFFFFFF57
S214403440FFFFFFFFFFFFFFFFFFFFFFFFFFFFFFFF47
S214403450FFFFFFFFFFFFFFFFFFFFFFFFFFFFFFFF37
S21440346028334000080000000D000000080000005F
S214403470000000000000000000000000000000FF08
S214403480FFFFFFFFFFFFFFFF000000FFFFFFFFFF04
S214403490FFFFFFFFFFFFFF000000FFFFFFFFFFFFF4
S2144034A0000000FFFFFFFFFFFFFFFFFFFFFFFF00E3
S2144034B00000FFFFFFFFFFFF000000FFFFFFFFFFD2
S2144034C0FFFFFFFFFFFFFF000000FFFFFFFFFFFFC4
S2144034D0000000000000000000000000000000FFA8
S2144034E0FFFFFFFFFFFFFFFF000000FFFFFFFFFFA4
S2144034F0FFFFFFFFFFFFFF000000FFFFFFFFFFFF94
S214403500000000FFFFFFFFFFFFFFFFFFFFFFFFFF83
S214403510FFFF000000FFFFFF000000FFFFFFFFFF70
S214403520FFFFFFFFFFFFFFFFFFFF000000FFFFFF63
S214403530000000FFFFFFFFFFFFFFFFFFFFFFFF0052
S2144035400000FFFFFFFFFFFF00000000000000003C
S21440355000000000000000FFFFFFFFFFFFFFFFFF2F
S214403560FFFFFFFFFFFFFFFFFFFFFFFFFFFFFFFF26
S214403570FFFFFFFFFFFFFFFFFFFFFFFFFFFFFFFF16
S214403580FFFFFFFFFFFFFFFFFFFFFFFFFFFFFFFF06
S214403590FFFFFFFFFFFFFFFFFFFFFFFFFFFFFFFFF6
S2144035A0FFFFFFFFFFFFFFFF7034400008000000F2
S2144035B00D00000008000000FFFFFFFFFFFFFFFFB9
S2144035C0FF000000000000000000000000FFFFFFBA
S2144035D0FFFFFFFFFFFF000000000000FFFFFFFFB0
S2144035E0FFFFFFFFFFFFFFFF000000FFFFFFFFFFA3
S2144035F0FF000000FFFFFFFFFFFFFFFFFFFFFFFF93
S214403600FFFFFFFFFFFFFFFFFF000000FFFFFFFF82
S214403610FFFFFFFFFFFFFFFFFFFFFFFFFFFFFFFF75
S214403620FFFFFFFF000000FFFFFFFFFFFFFFFFFF62
S214403630FFFFFFFFFFFFFFFFFFFFFFFFFFFFFF0054
S2144036400000FFFFFFFFFFFFFFFFFFFFFFFFFFFF43
S214403650FFFFFFFFFFFFFFFFFFFF000000FFFFFF32
S214403660FFFFFFFFFFFFFFFFFFFFFFFFFFFFFFFF25
S214403670FFFFFFFFFFFFFFFF000000FFFFFFFFFF12
S214403680FFFFFFFFFFFFFFFFFFFFFFFFFFFFFFFF05
S214403690FFFFFF000000000000FFFFFFFFFFFFFFEF
S2144036A0FFFFFFFFFF000000FFFFFFFFFFFFFFFFE2
S2144036B0FFFFFFFF000000000000000000000000C9
S2144036C0FFFFFFFFFFFFFFFFFFFFFFFFFFFFFFFFC5
S2144036D0FFFFFFFFFFFFFFFFFFFFFFFFFFFFFFFFB5
S2144036E0FFFFFFFFFFFFFFFFFFFFFFFFFFFFFFFFA5
S2144036F0FFFFFFFFFFFFFFFFFFFFFFFFFFFFFFFF95
S214403700FFFFFFFFFFFFFFFFFFFFFFFFFFFFFFFF84
S214403710FFFFFFFFFFFFFF00B83540000900000035
S2144037200D0000000800000000000000000000003F
S21440373000000000000000000000FFFFFFFFFFFF4A
S214403740FFFFFFFFFFFF000000FFFFFFFFFFFFFF41
S214403750FFFFFFFFFFFFFFFF000000000000FFFF2E
S214403760FFFFFFFF000000FFFFFFFFFFFFFFFFFF21
S214403770FFFFFFFFFFFFFFFFFF000000FFFFFFFF11
S214403780FFFF000000FFFFFFFFFFFFFFFFFFFFFF01
S214403790FFFFFFFFFFFFFFFFFFFF000000FFFFFFF1
S2144037A0000000FFFFFFFFFFFFFFFFFFFFFFFFFFE1
S2144037B0FFFFFFFFFFFFFFFF000000FFFFFF0000CF
S2144037C000FFFFFFFFFFFFFFFFFFFFFFFFFFFFFFC3
S2144037D0FFFFFFFFFFFF000000FFFFFF000000FFAE
S2144037E0FFFFFFFFFFFFFFFFFFFFFFFFFFFFFFFFA4
S2144037F0FFFFFFFF000000FFFFFF000000FFFFFF8E
S214403800FFFFFFFFFFFFFFFFFFFFFFFFFFFFFF0082
S2144038100000FFFFFFFFFFFF000000FFFFFFFFFF6E
S214403820FFFFFFFFFFFFFFFFFFFF0000000000005D
S214403830FFFFFFFFFFFF0000000000000000000049
S2144038400000000000000000FFFFFFFFFFFFFFFF3B
S214403850FFFFFFFFFFFFFFFFFFFFFFFFFFFFFFFF33
S214403860FFFFFFFFFFFFFFFFFFFFFFFFFFFFFFFF23
S214403870FFFFFFFFFFFFFFFFFFFFFFFFFFFFFFFF13
S214403880FFFFFFFFFFFFFFFFFFFFFFFFFFFFFFFF03
S214403890FFFFFFFFFFFFFFFFFFFFFFFFFFFFFFFFF3
S2144038A0FFFFFFFFFFFFFFFFFFFFFFFFFFFF0000E1
S2144038B0283740000A0000000D0000000800000005
S2144038C000000000000000000000000000000000B3
S2144038D00000000000FFFFFF000000FFFFFFFFFFAB
S2144038E0FFFFFFFFFFFFFFFFFFFFFFFFFFFFFFFFA3
S2144038F0000000FFFFFFFFFFFFFFFFFFFFFFFFFF90
S214403900FFFFFFFFFFFFFFFF000000FFFFFFFFFF7F
S214403910FFFFFFFFFFFFFFFFFFFFFFFFFFFFFFFF72
S2144039200000000000000000000000000000000052
S2144039300000000000FFFFFF000000FFFFFFFFFF4A
S214403940FFFFFFFFFFFFFFFFFFFFFFFFFFFFFFFF42
S214403950000000FFFFFFFFFFFFFFFFFFFFFFFFFF2F
S214403960FFFFFFFFFFFFFFFF000000FFFFFFFFFF1F
S214403970FFFFFFFFFFFFFFFFFFFFFFFFFFFFFFFF12
S214403980000000FFFFFFFFFFFFFFFFFFFFFFFFFFFF
S214403990FFFFFFFFFFFFFFFF0000000000000000EA
S2144039A000000000000000000000000000FFFFFFD5
S2144039B0FFFFFFFFFFFFFFFFFFFFFFFFFFFFFFFFD2
S2144039C0FFFFFFFFFFFFFFFFFFFFFFFFFFFFFFFFC2
S2144039D0FFFFFFFFFFFFFFFFFFFFFFFFFFFFFFFFB2
S2144039E0FFFFFFFFFFFFFFFFFFFFFFFFFFFFFFFFA2
S2144039F0FFFFFFFFFFFFFFFFC0384000080000004A
S214403A000D0000000800000000000000000000005C
S214403A1000000000000000000000FFFFFF00000064
S214403A20FFFFFFFFFFFFFFFFFFFFFFFFFFFFFFFF61
S214403A30FFFF000000FFFFFFFFFFFFFFFFFFFFFF4E
S214403A40FFFFFFFFFFFFFF000000FFFFFFFFFFFF3E
S214403A50FFFFFFFFFFFFFFFFFFFFFFFF000000002D
S214403A600000000000000000000000000000FFFF13
S214403A70FF000000FFFFFFFFFFFFFFFFFFFFFFFF0E
S214403A80FFFFFFFFFFFF000000FFFFFFFFFFFFFFFE
S214403A90FFFFFFFFFFFFFFFFFFFFFF000000FFFFEE
S214403AA0FFFFFFFFFFFFFFFFFFFFFFFFFFFFFFFFE1
S214403AB0000000FFFFFFFFFFFFFFFFFFFFFFFFFFCE
S214403AC0FFFFFFFFFF000000FFFFFFFFFFFFFFFFBE
S214403AD0FFFFFFFFFFFFFFFFFFFFFFFFFFFFFFFFB1
S214403AE0FFFFFFFFFFFFFFFFFFFFFFFFFFFFFFFFA1
S214403AF0FFFFFFFFFFFFFFFFFFFFFFFFFFFFFFFF91
S214403B00FFFFFFFFFFFFFFFFFFFFFFFFFFFFFFFF80
S214403B10FFFFFFFFFFFFFFFFFF000000083A4000E7
S214403B20070000000D00000008000000FFFFFFFF38
S214403B30FFFFFFFFFF000000000000000000000045
S214403B4000FFFFFFFFFFFFFFFFFF00000000000039
S214403B50FFFFFFFFFFFFFFFFFFFFFFFF000000FF2D
S214403B60FFFFFFFFFF000000FFFFFFFFFFFFFFFF1D
S214403B70FFFFFFFFFFFFFFFFFFFFFFFFFF0000000D
S214403B80FFFFFFFFFFFFFFFFFFFFFFFFFFFFFFFF00
S214403B90FFFFFFFFFFFFFFFF000000FFFFFFFFFFED
S214403BA0FFFFFFFFFFFFFFFFFFFFFFFFFFFFFFFFE0
S214403BB0FFFFFF000000FFFFFFFFFFFFFFFFFF00CC
S214403BC00000000000000000000000FFFFFF0000B3
S214403BD000FFFFFFFFFFFFFFFFFFFFFFFFFFFFFFAF
S214403BE0FFFFFF000000FFFFFFFFFFFF000000FF9A
S214403BF0FFFFFFFFFFFFFFFFFFFFFFFFFFFF00008E
S214403C0000FFFFFFFFFFFF000000000000FFFFFF78
S214403C10FFFFFFFFFFFFFFFFFF000000FFFFFFFF6C
S214403C20FFFFFFFFFFFFFFFF000000000000000057
S214403C3000000000FFFFFFFFFFFFFFFFFFFFFFFF4B
S214403C40FFFFFFFFFFFFFFFFFFFFFFFFFFFFFFFF3F
S214403C50FFFFFFFFFFFFFFFFFFFFFFFFFFFFFFFF2F
S214403C60FFFFFFFFFFFFFFFFFFFFFFFFFFFFFFFF1F
S214403C70FFFFFFFFFFFFFFFFFFFFFFFFFFFFFFFF0F
S214403C80FFFFFFFFFFFFFFFFFFFFFF002C3B400053
S214403C90090000000D00000008000000000000FFC2
S214403CA0FFFFFFFFFFFFFFFFFFFFFFFFFFFFFFFFDF
S214403CB0FF000000FFFFFF000000FFFFFFFFFFFFC9
S214403CC0FFFFFFFFFFFFFFFFFFFFFFFF000000FFBC
S214403CD0FFFF000000FFFFFFFFFFFFFFFFFFFFFFAC
S214403CE0FFFFFFFFFFFFFF000000FFFFFF00000099
S214403CF0FFFFFFFFFFFFFFFFFFFFFFFFFFFFFFFF8F
S214403D00FFFF000000FFFFFF000000000000000073
S214403D10000000000000000000000000000000005E
S214403D20FFFFFF000000FFFFFFFFFFFFFFFFFFFF5B
S214403D30FFFFFFFFFFFFFFFF000000FFFFFF000049
S214403D4000FFFFFFFFFFFFFFFFFFFFFFFFFFFFFF3D
S214403D50FFFFFF000000FFFFFF000000FFFFFFFF28
S214403D60FFFFFFFFFFFFFFFFFFFFFFFFFFFF00001C
S214403D7000FFFFFF000000FFFFFFFFFFFFFFFFFF0A
S214403D80FFFFFFFFFFFFFFFFFF000000FFFFFF00FA
S214403D900000FFFFFFFFFFFFFFFFFFFFFFFFFFFFEC
S214403DA0FFFFFFFF000000FFFFFFFFFFFFFFFFFFDB
S214403DB0FFFFFFFFFFFFFFFFFFFFFFFFFFFFFFFFCE
S214403DC0FFFFFFFFFFFFFFFFFFFFFFFFFFFFFFFFBE
S214403DD0FFFFFFFFFFFFFFFFFFFFFFFFFFFFFFFFAE
S214403DE0FFFFFFFFFFFFFFFFFFFFFFFFFFFFFFFF9E
S214403DF0FFFFFFFFFFFFFFFFFFFFFF009C3C400071
S214403E00090000000D00000008000000000000004F
S214403E100000000000FFFFFFFFFFFF000000FFFF65
S214403E20FFFFFFFFFFFFFF000000FFFFFFFFFFFF5A
S214403E30FFFFFF000000FFFFFFFFFFFFFFFFFF0049
S214403E400000FFFFFFFFFFFFFFFFFF000000FFFF38
S214403E50FFFFFFFFFFFFFF000000FFFFFFFFFFFF2A
S214403E60FFFFFF000000FFFFFFFFFFFFFFFFFF0019
S214403E700000FFFFFFFFFFFF000000000000000003
S214403E8000FFFFFFFFFFFFFFFFFFFFFFFFFFFFFFFC
S214403E90FFFFFFFFFFFFFFFFFFFFFFFFFFFFFFFFED
S214403EA0FFFFFFFFFFFFFFFF0C3E40000400000047
S214403EB00D00000008000000FFFFFF0000000000AB
S214403EC000000000000000FFFFFFFFFFFFFFFFFFB6
S214403ED0FFFFFFFFFFFF000000FFFFFFFFFFFFFFAA
S214403EE0FFFFFFFFFFFFFFFF000000FFFFFFFFFF9A
S214403EF0FFFFFFFFFFFFFFFFFFFF000000FFFFFF8A
S214403F00FFFFFFFFFFFFFFFFFFFFFFFF000000FF79
S214403F10FFFFFFFFFFFFFFFFFFFFFFFFFFFF00006A
S214403F2000FFFFFFFFFFFFFFFFFFFFFFFFFFFFFF5B
S214403F30000000FFFFFFFFFFFFFFFFFFFFFFFFFF49
S214403F40FFFF000000FFFFFFFFFFFFFFFFFFFFFF39
S214403F50FFFFFFFF000000FFFFFF00000000000023
S214403F60000000000000FFFFFFFFFFFFFFFFFFFF16
S214403F70FFFFFFFFFFFFFFFFFFFFFFFFFFFFFFFF0C
S214403F80FFFFFFFFFFFFFFFFFFFFFFFFFFFFFFFFFC
S214403F90FFFFFFFFFFFFFFFFFFFFFFFFFFFFFFFFEC
S214403FA0FFFF0000B83E4000060000000D00000085
S214403FB008000000000000FFFFFFFFFFFFFFFFFFBD
S214403FC0FFFFFFFFFFFF000000FFFFFF000000FFB6
S214403FD0FFFFFFFFFFFFFFFFFFFFFF000000FFFFA9
S214403FE0FFFFFFFF000000FFFFFFFFFFFFFFFFFF99
S214403FF0000000FFFFFFFFFFFFFFFFFF000000FF86
S214404000FFFFFFFFFF000000FFFFFFFFFFFFFFFF78
S214404010FFFFFFFF000000FFFFFF000000FFFFFF65
S214404020FFFFFFFFFFFFFFFFFFFFFFFF0000000057
S2144040300000000000FFFFFFFFFFFFFFFFFFFFFF46
S214404040FFFFFFFF000000FFFFFFFFFFFF00000035
S214404050FFFFFFFFFFFFFFFFFFFFFFFF000000FF28
S214404060FFFFFFFFFFFFFFFF000000FFFFFFFFFF18
S214404070FFFFFFFF000000FFFFFFFFFFFFFFFFFF08
S214404080FFFFFF000000FFFFFFFFFFFF000000FFF5
S214404090FFFFFFFFFFFFFFFFFFFFFFFFFFFF0000E9
S2144040A000FFFFFFFFFFFFFFFFFFFFFFFFFFFFFFDA
S2144040B0FFFFFFFFFFFFFFFFFFFFFFFFFFFFFFFFCB
S2144040C0FFFFFFFFFFFFFFFFFFFFFFFFFFFFFFFFBB
S2144040D0FFFFFFFFFFFFFFFFFFFFFFFFFFFFFFFFAB
S2144040E0FFFFFFFFFFFFFFFFFFFFFFFFB43F400064
S2144040F0080000000D00000008000000000000FF5F
S214404100FFFFFFFFFFFFFFFFFFFFFFFFFFFFFFFF7A
S214404110FF000000FFFFFFFFFFFFFFFFFFFFFFFF67
S214404120FFFFFFFFFFFF000000FFFFFFFFFFFFFF57
S214404130FFFFFFFFFFFFFFFFFFFFFF000000FFFF47
S214404140FFFFFFFFFFFFFFFFFFFFFFFFFFFFFFFF3A
S214404150000000FFFFFFFFFFFFFFFFFFFFFFFFFF27
S214404160FFFFFFFFFF000000FFFFFFFFFFFFFFFF17
S214404170FFFFFFFFFFFFFFFFFFFF000000FFFFFF07
S214404180FFFFFFFFFFFFFFFFFFFFFFFFFFFFFF00F9
S2144041900000FFFFFFFFFFFFFFFFFFFFFFFFFFFFE8
S2144041A0FFFFFFFF000000FFFFFFFFFFFFFFFFFFD7
S2144041B0FFFFFFFFFFFFFFFFFF00000000000000C3
S2144041C00000000000000000000000FFFFFFFFFFAF
S2144041D0FFFFFFFFFFFFFFFFFFFFFFFFFFFFFFFFAA
S2144041E0FFFFFFFFFFFFFFFFFFFFFFFFFFFFFFFF9A
S2144041F0FFFFFFFFFFFFFFFFFFFFFFFFFFFFFFFF8A
S214404200FFFFFFFFFFFFFFFFFFFFFFFFFF00000076
S214404210FC404000070000000D00000008000000C1
S214404220000000000000FFFFFFFFFFFFFFFFFFFF53
S214404230FFFFFFFFFF000000000000FFFFFF000041
S21440424000000000FFFFFFFFFFFFFFFFFFFFFFFF35
S214404250FFFFFF000000000000FFFFFF000000FF20
S214404260FFFF000000FFFFFFFFFFFFFFFFFF000014
S21440427000FFFFFF000000FFFFFF000000FFFFFF02
S214404280000000FFFFFFFFFFFFFFFFFF000000FFF3
S214404290FFFF000000FFFFFF000000FFFFFFFFFFE3
S2144042A0FF000000FFFFFF000000FFFFFFFFFFFFD3
S2144042B0000000FFFFFF000000FFFFFFFFFFFF00C2
S2144042C00000FFFFFF000000FFFFFFFFFFFF0000B2
S2144042D000FFFFFF000000FFFFFFFFFFFFFFFFFFA5
S2144042E0000000FFFFFFFFFFFFFFFFFF000000FF93
S2144042F0FFFF000000FFFFFFFFFFFFFFFFFF000084
S21440430000FFFFFFFFFFFFFFFFFF000000FFFFFF74
S214404310000000FFFFFFFFFFFFFFFFFFFFFFFFFF65
S214404320FFFFFFFFFFFFFFFF000000FFFFFF000053
S21440433000FFFFFFFFFFFFFFFFFFFFFFFFFFFFFF47
S214404340FFFFFFFFFFFF000000FFFFFFFFFFFFFF35
S214404350FFFFFFFFFFFFFFFFFFFFFFFFFFFFFFFF28
S214404360FFFFFFFFFFFFFFFFFFFFFFFFFFFFFFFF18
S214404370FFFFFFFFFFFFFFFFFFFFFFFFFFFFFFFF08
S214404380FFFFFFFFFFFFFFFFFFFFFFFFFFFFFFFFF8
S214404390FFFFFFFFFFFFFFFFFFFFFFFFFFFFFFFFE8
S2144043A0FFFFFFFFFFFF0000204240000A00000022
S2144043B00D00000008000000000000000000FFFFA5
S2144043C0FFFFFFFFFFFFFFFFFFFFFFFFFF000000B5
S2144043D0FFFFFF000000000000FFFFFFFFFFFFFFA2
S2144043E0FFFFFFFFFFFFFFFF000000FFFFFF000093
S2144043F000FFFFFF000000FFFFFFFFFFFFFFFFFF84
S214404400FFFFFF000000FFFFFF000000FFFFFF0070
S2144044100000FFFFFFFFFFFFFFFFFFFFFFFF000063
S21440442000FFFFFF000000FFFFFFFFFFFF00000050
S214404430FFFFFFFFFFFFFFFFFF000000FFFFFF0043
S2144044400000FFFFFFFFFFFFFFFFFF000000FFFF32
S214404450FFFFFFFF000000FFFFFF000000FFFFFF21
S214404460FFFFFFFFFFFF000000FFFFFFFFFFFF0013
S2144044700000FFFFFF000000FFFFFFFFFFFFFFFF02
S214404480FFFFFFFF000000FFFFFF000000FFFFFFF1
S214404490000000FFFFFFFFFFFFFFFFFFFFFFFFFFE4
S2144044A0FFFF000000000000FFFFFF000000FFFFCE
S2144044B0FFFFFFFFFFFFFFFFFFFFFFFFFF000000C4
S2144044C0000000FFFFFFFFFFFFFFFFFFFFFFFFFFB4
S2144044D0FFFFFFFFFFFFFFFFFFFFFFFFFFFFFFFFA7
S2144044E0FFFFFFFFFFFFFFFFFFFFFFFFFFFFFFFF97
S2144044F0FFFFFFFFFFFFFFFFFFFFFFFFFFFFFFFF87
S214404500FFFFFFFFFFFFFFFFFFFFFFFFFFFFFFFF76
S214404510FFFFFFFFFFFFFF00B84340000900000019
S2144045200D00000008000000FFFFFFFFFFFFFFFF39
S214404530FF000000000000000000FFFFFFFFFFFF3D
S214404540FFFFFFFFFFFFFFFFFF000000000000FF30
S214404550FFFFFFFFFFFFFFFF000000000000FFFF20
S214404560FFFFFFFFFFFFFF000000FFFFFFFFFFFF13
S214404570FFFFFFFFFFFFFFFFFF000000FFFFFFFF03
S214404580FFFF000000FFFFFFFFFFFFFFFFFFFFFFF3
S214404590FFFFFFFFFFFFFFFFFFFF000000FFFFFFE3
S2144045A0000000FFFFFFFFFFFFFFFFFFFFFFFFFFD3
S2144045B0FFFFFFFFFFFFFFFF000000FFFFFF0000C1
S2144045C000FFFFFFFFFFFFFFFFFFFFFFFFFFFFFFB5
S2144045D0FFFFFFFFFFFF000000FFFFFF000000FFA0
S2144045E0FFFFFFFFFFFFFFFFFFFFFFFFFFFFFFFF96
S2144045F0FFFFFFFF000000FFFFFFFFFFFF00000080
S214404600FFFFFFFFFFFFFFFFFFFFFFFFFFFFFF0074
S2144046100000FFFFFFFFFFFFFFFFFF00000000005E
S21440462000FFFFFFFFFFFFFFFFFF0000000000004E
S214404630FFFFFFFFFFFFFFFFFFFFFFFFFFFFFF0044
S2144046400000000000000000FFFFFFFFFFFFFFFF2D
S214404650FFFFFFFFFFFFFFFFFFFFFFFFFFFFFFFF25
S214404660FFFFFFFFFFFFFFFFFFFFFFFFFFFFFFFF15
S214404670FFFFFFFFFFFFFFFFFFFFFFFFFFFFFFFF05
S214404680FFFFFFFFFFFFFFFFFFFFFFFFFFFFFFFFF5
S214404690FFFFFFFFFFFFFFFFFFFFFFFFFFFFFFFFE5
S2144046A0FFFFFFFFFFFFFFFFFFFFFFFFFFFF0000D3
S2144046B0284540000A0000000D00000008000000E9
S2144046C0000000000000000000000000000000FFA6
S2144046D0FFFFFFFFFFFFFFFF000000FFFFFFFFFFA2
S2144046E0FFFFFFFFFFFFFF000000FFFFFFFFFFFF92
S2144046F0000000FFFFFFFFFFFFFFFFFFFFFFFFFF82
S214404700FFFF000000FFFFFF000000FFFFFFFFFF6E
S214404710FFFFFFFFFFFFFFFFFFFF000000FFFFFF61
S214404720000000FFFFFFFFFFFFFFFFFFFFFFFF0050
S2144047300000FFFFFFFFFFFF00000000000000003A
S21440474000000000000000FFFFFFFFFFFFFFFFFF2D
S214404750000000FFFFFFFFFFFFFFFFFFFFFFFFFF21
S214404760FFFFFFFFFFFFFFFF000000FFFFFFFFFF11
S214404770FFFFFFFFFFFFFFFFFFFFFFFFFFFFFFFF04
S214404780000000FFFFFFFFFFFFFFFFFFFFFFFFFFF1
S214404790FFFFFFFFFFFFFFFF000000FFFFFFFFFFE1
S2144047A0FFFFFFFFFFFFFFFFFFFFFFFFFFFFFFFFD4
S2144047B0FFFFFFFFFFFFFFFFFFFFFFFFFFFFFFFFC4
S2144047C0FFFFFFFFFFFFFFFFFFFFFFFFFFFFFFFFB4
S2144047D0FFFFFFFFFFFFFFFFFFFFFFFFFFFFFFFFA4
S2144047E0FFFFFFFFFFFFFFFFFFFFFFFFFFFFFFFF94
S2144047F0FFFFFFFFFFFFFFFFC0464000080000002E
S2144048000D00000008000000FFFFFFFFFFFFFFFF56
S214404810FF000000000000000000FFFFFFFFFFFF5A
S214404820FFFFFFFFFFFFFFFFFF000000000000FF4D
S214404830FFFFFFFFFFFFFFFF000000000000FFFF3D
S214404840FFFFFFFFFFFFFF000000FFFFFFFFFFFF30
S214404850FFFFFFFFFFFFFFFFFF000000FFFFFFFF20
S214404860FFFF000000FFFFFFFFFFFFFFFFFFFFFF10
S214404870FFFFFFFFFFFFFFFFFFFF000000FFFFFF00
S214404880000000FFFFFFFFFFFFFFFFFFFFFFFFFFF0
S214404890FFFFFFFFFFFFFFFF000000FFFFFF0000DE
S2144048A000FFFFFFFFFFFFFFFFFFFFFFFFFFFFFFD2
S2144048B0FFFFFFFFFFFF000000FFFFFF000000FFBD
S2144048C0FFFFFFFFFFFFFFFFFFFFFFFFFFFFFFFFB3
S2144048D0FFFFFFFF000000FFFFFFFFFFFF0000009D
S2144048E0FFFFFFFFFFFFFFFFFFFFFFFFFFFFFF0092
S2144048F00000FFFFFFFFFFFFFFFFFF00000000007C
S21440490000FFFFFFFFFFFFFFFFFF0000000000006B
S214404910FFFFFFFFFFFFFFFFFFFFFFFFFFFFFF0061
S2144049200000000000000000FFFFFFFFFFFFFFFF4A
S214404930FFFFFFFFFFFFFFFFFFFFFFFFFFFFFFFF42
S214404940FFFFFF000000FFFFFFFFFFFFFFFFFFFF2F
S214404950FFFFFFFFFFFFFFFFFFFFFFFFFFFFFFFF22
S214404960FF000000FFFFFFFFFFFFFFFFFFFFFFFF0F
S214404970FFFFFFFFFFFFFFFFFFFFFFFFFFFFFFFF02
S214404980FFFF000000000000000000FFFFFF0000E7
S214404990084840000A0000000D0000000800000023
S2144049A0000000000000000000000000000000FFC3
S2144049B0FFFFFFFFFFFFFFFFFFFFFF000000FFFFBF
S2144049C0FFFFFFFFFFFFFFFFFFFF000000FFFFFFAF
S2144049D0FFFFFFFFFFFF000000FFFFFFFFFFFFFF9F
S2144049E0FFFFFFFFFF000000FFFFFFFFFFFFFFFF8F
S2144049F0FF000000FFFFFFFFFFFFFFFFFFFFFFFF7F
S214404A00000000FFFFFFFFFFFFFFFFFF000000FF6B
S214404A10FFFFFFFFFFFFFFFFFFFFFF000000FFFF5E
S214404A20FFFFFFFFFFFFFF00000000000000000048
S214404A30000000000000FFFFFFFFFFFFFFFFFFFF3B
S214404A40FFFF000000FFFFFFFFFFFFFFFFFF00002C
S214404A5000FFFFFFFFFFFFFFFFFFFFFFFF0000001D
S214404A60FFFFFFFFFFFFFFFFFFFFFFFF000000FF0E
S214404A70FFFFFFFFFFFFFFFF000000FFFFFFFFFFFE
S214404A80FFFFFFFFFFFFFFFFFFFF000000FFFFFFEE
S214404A90FFFFFF000000FFFFFFFFFFFFFFFFFFFFDE
S214404AA0FFFFFFFFFFFFFFFF000000FFFFFFFFFFCE
S214404AB0FFFFFFFFFFFFFFFFFFFFFFFFFFFFFFFFC1
S214404AC0FFFFFFFFFFFFFFFFFFFFFFFFFFFFFFFFB1
S214404AD0FFFFFFFFFFFFFFFFFFFFFFFFFFFFFFFFA1
S214404AE0FFFFFFFFFFFFFFFFFFFFFFFFFFFFFFFF91
S214404AF0FFFFFFFFFFFFFFFFFFFFFFFFFFFFFF0080
S214404B00A0494000090000000D0000000800000019
S214404B10FFFFFF0000000000000000000000000053
S214404B200000FFFFFFFFFFFF000000FFFFFFFFFF4B
S214404B30FFFFFFFFFFFFFFFFFFFF000000FFFFFF3D
S214404B40000000FFFFFFFFFFFFFFFFFFFFFFFFFF2D
S214404B50FFFFFFFFFFFFFFFF000000FFFFFFFFFF1D
S214404B60FFFFFFFFFFFFFFFFFFFFFFFFFFFFFFFF10
S214404B70FFFFFF000000000000000000FFFFFFFFF7
S214404B80FFFFFFFFFFFFFFFFFFFFFFFFFFFFFFFFF0
S214404B90FFFFFFFF000000000000FFFFFFFFFFFFDA
S214404BA0FFFFFFFFFFFFFFFFFFFFFFFFFFFFFFFFD0
S214404BB0FFFF000000FFFFFFFFFFFFFFFFFFFFFFBD
S214404BC0FFFFFFFFFFFFFFFFFFFF000000FFFFFFAD
S214404BD0000000FFFFFFFFFFFFFFFFFFFFFFFFFF9D
S214404BE0FFFF000000FFFFFFFFFFFF000000000088
S214404BF000000000000000000000FFFFFFFFFFFF76
S214404C00FFFFFFFFFFFFFFFFFFFFFFFFFFFFFFFF6F
S214404C10FFFFFFFFFFFFFFFFFFFFFFFFFFFFFFFF5F
S214404C20FFFFFFFFFFFFFFFFFFFFFFFFFFFFFFFF4F
S214404C30FFFFFFFFFFFFFFFFFFFFFFFFFFFFFFFF3F
S214404C40FFFFFFFFFFFFFFFF104B40000800000084
S214404C500D000000080000000000000000000000FA
S214404C6000000000000000000000000000000000FF
S214404C70FFFFFFFFFFFFFFFFFF000000FFFFFFFFFC
S214404C80FFFFFFFFFFFFFFFFFFFFFFFFFFFFFFFFEF
S214404C90FF000000FFFFFFFFFFFFFFFFFFFFFFFFDC
S214404CA0FFFFFFFFFFFFFFFFFF000000FFFFFFFFCC
S214404CB0FFFFFFFFFFFFFFFFFFFFFFFFFFFFFFFFBF
S214404CC0FF000000FFFFFFFFFFFFFFFFFFFFFFFFAC
S214404CD0FFFFFFFFFFFFFFFFFF000000FFFFFFFF9C
S214404CE0FFFFFFFFFFFFFFFFFFFFFFFFFFFFFFFF8F
S214404CF0FF000000FFFFFFFFFFFFFFFFFFFFFFFF7C
S214404D00FFFFFFFFFFFFFFFFFF000000FFFFFFFF6B
S214404D10FFFFFFFFFFFFFFFFFFFFFFFFFFFFFFFF5E
S214404D20FF000000FFFFFFFFFFFFFFFFFFFFFFFF4B
S214404D30FFFFFFFFFFFFFFFFFF000000FFFFFFFF3B
S214404D40FFFFFFFFFFFFFFFFFFFFFFFFFFFFFFFF2E
S214404D50FFFFFFFFFFFFFFFFFFFFFFFFFFFFFFFF1E
S214404D60FFFFFFFFFFFFFFFFFFFFFFFFFFFFFFFF0E
S214404D70FFFFFFFFFFFFFFFFFFFFFFFFFFFFFFFFFE
S214404D80FFFFFFFFFFFFFFFFFFFFFFFFFFFFFFFFEE
S214404D90584C4000080000000D00000008000000CD
S214404DA0000000FFFFFFFFFFFFFFFFFFFFFFFFFFCB
S214404DB0FFFFFFFFFF000000FFFFFF000000FFFFB8
S214404DC0FFFFFFFFFFFFFFFFFFFFFFFFFFFFFFFFAE
S214404DD0000000FFFFFF000000FFFFFFFFFFFFFF98
S214404DE0FFFFFFFFFFFFFFFFFFFFFF000000FFFF8B
S214404DF0FF000000FFFFFFFFFFFFFFFFFFFFFFFF7B
S214404E00FFFFFFFFFFFF000000FFFFFF000000FF67
S214404E10FFFFFFFFFFFFFFFFFFFFFFFFFFFFFFFF5D
S214404E20FF000000FFFFFF000000FFFFFFFFFFFF47
S214404E30FFFFFFFFFFFFFFFFFFFFFFFF000000FF3A
S214404E40FFFF000000FFFFFFFFFFFFFFFFFFFFFF2A
S214404E50FFFFFFFFFFFFFF000000FFFFFF00000017
S214404E60FFFFFFFFFFFFFFFFFFFFFFFFFFFFFFFF0D
S214404E70FFFF000000FFFFFFFFFFFF000000FFFFF7
S214404E80FFFFFFFFFFFFFFFFFFFF000000FFFFFFEA
S214404E90FFFFFFFFFFFFFFFFFF00000000000000D6
S214404EA00000000000FFFFFFFFFFFFFFFFFFFFFFC8
S214404EB0FFFFFFFFFFFFFFFFFFFFFFFFFFFFFFFFBD
S214404EC0FFFFFFFFFFFFFFFFFFFFFFFFFFFFFFFFAD
S214404ED0FFFFFFFFFFFFFFFFFFFFFFFFFFFFFFFF9D
S214404EE0FFFFFFFFFFFFFFFFFFFFFFFFFFFFFFFF8D
S214404EF0FFFFFFFFFFFFFFFFFFFFFFFFFFFFFF007C
S214404F00A04D4000090000000D0000000800000011
S214404F10000000FFFFFFFFFFFFFFFFFFFFFFFFFF59
S214404F20FFFF000000FFFFFF000000FFFFFFFFFF46
S214404F30FFFFFFFFFFFFFFFFFFFF000000FFFFFF39
S214404F40FFFFFF000000FFFFFFFFFFFFFFFFFF0028
S214404F500000FFFFFFFFFFFFFFFFFF000000FFFF17
S214404F60FFFFFFFFFFFFFF000000FFFFFFFFFFFF09
S214404F70FFFFFF000000FFFFFFFFFFFFFFFFFF00F8
S214404F800000FFFFFFFFFFFFFFFFFFFFFFFF0000E8
S214404F9000FFFFFF000000FFFFFFFFFFFFFFFFFFD8
S214404FA0FFFFFFFFFFFF000000FFFFFF000000FFC6
S214404FB0FFFFFFFFFFFFFFFFFFFFFFFFFFFF0000BA
S214404FC000FFFFFF000000FFFFFFFFFFFFFFFFFFA8
S214404FD0FFFFFFFFFFFFFFFFFF000000FFFFFFFF99
S214404FE0FFFFFFFFFFFFFFFFFFFFFFFFFFFFFFFF8C
S214404FF0FF000000FFFFFFFFFFFFFFFFFFFFFFFF79
S214405000FFFFFFFFFFFFFFFFFFFFFFFFFFFFFFFF6B
S214405010FFFFFFFFFFFFFFFFFFFFFFFFFFFFFFFF5B
S214405020FFFFFFFFFFFFFFFFFFFFFFFFFFFFFFFF4B
S214405030FFFFFFFFFFFFFFFFFFFFFFFFFFFFFFFF3B
S214405040FFFFFFFFFFFFFFFF104F4000080000007C
S2144050500D00000008000000000000FFFFFFFFFFFB
S214405060FFFFFFFFFFFFFFFFFFFF000000FFFFFF08
S214405070FFFFFFFFFFFFFFFFFFFFFFFF000000FFF8
S214405080FFFF000000FFFFFFFFFFFFFFFFFFFFFFE8
S214405090FF000000FFFFFF000000FFFFFFFFFFFFD5
S2144050A0FFFFFFFFFFFF000000FFFFFFFFFFFF00C7
S2144050B00000FFFFFFFFFFFFFFFFFF000000FFFFB6
S2144050C0FF000000FFFFFFFFFFFFFFFFFF000000A5
S2144050D0FFFFFFFFFFFFFFFFFF000000FFFFFFFF98
S2144050E0FFFFFFFFFF000000FFFFFF000000FFFF85
S2144050F0FFFFFFFFFFFFFF000000FFFFFFFFFFFF78
S214405100FFFFFF000000FFFFFFFFFFFFFFFFFF0066
S2144051100000FFFFFF000000FFFFFFFFFFFFFFFF55
S214405120FF000000FFFFFFFFFFFFFFFFFF00000044
S214405130FFFFFFFFFFFF000000FFFFFFFFFFFFFF37
S214405140FFFF000000FFFFFFFFFFFF000000FFFF24
S214405150FFFFFFFFFFFFFFFFFFFF000000FFFFFF17
S214405160000000FFFFFFFFFFFFFFFFFF000000FF04
S214405170FFFF000000FFFFFFFFFFFFFFFFFFFFFFF7
S214405180FFFFFFFF000000FFFFFF000000FFFFFFE4
S214405190FFFFFFFFFFFF000000FFFFFF000000FFD4
S2144051A0FFFFFFFFFFFFFFFFFFFFFFFFFFFF0000C8
S2144051B000000000FFFFFFFFFFFFFFFFFFFFFFFFB6
S2144051C0FFFFFF000000000000FFFFFFFFFFFFFFA4
S2144051D0FFFFFFFFFFFFFFFFFFFFFF000000FFFF97
S2144051E0FFFFFFFFFFFFFFFFFFFFFFFFFF00000087
S2144051F0FFFFFFFFFFFFFFFFFFFFFFFFFFFFFFFF7A
S214405200FFFFFFFFFFFFFFFFFFFFFFFFFFFFFFFF69
S214405210FFFFFFFFFFFFFFFFFFFFFFFFFFFFFFFF59
S214405220FFFFFFFFFFFFFFFFFFFFFFFFFFFFFFFF49
S214405230FFFFFFFFFFFFFFFFFFFFFFFFFFFFFFFF39
S214405240FFFFFFFFFFFFFFFFFFFFFFFFFFFFFFFF29
S214405250FFFFFFFFFFFFFFFFFFFFFFFFFFFFFFFF19
S214405260FFFFFFFFFFFFFFFFFFFFFFFFFFFFFFFF09
S214405270FFFFFFFFFFFFFFFFFFFF0000585040000B
S2144052800E0000000D00000008000000000000FFB7
S214405290FFFFFFFFFFFFFFFFFFFFFFFFFFFF0000D7
S2144052A000FFFFFFFFFFFF000000FFFFFFFFFFFFC5
S2144052B0FFFFFF000000FFFFFFFFFFFFFFFFFF00B5
S2144052C00000FFFFFFFFFFFFFFFFFF000000FFFFA4
S2144052D0FFFFFFFFFFFFFFFFFFFF000000FFFFFF96
S2144052E0000000FFFFFFFFFFFFFFFFFFFFFFFFFF86
S2144052F0FFFFFFFFFF000000FFFFFFFFFFFFFFFF76
S214405300FFFFFFFFFFFFFFFFFFFFFFFFFF00000065
S214405310FFFFFFFFFFFFFFFFFFFFFFFFFFFFFFFF58
S214405320FFFF000000FFFFFF000000FFFFFFFFFF42
S214405330FFFFFFFFFFFFFF000000FFFFFFFFFFFF35
S214405340FFFFFF000000FFFFFFFFFFFFFFFFFF0024
S2144053500000FFFFFFFFFFFFFFFFFF000000FFFF13
S214405360FFFFFFFF000000FFFFFFFFFFFFFFFFFF05
S214405370FFFFFFFFFFFF000000FFFFFFFFFFFFFFF5
S214405380FFFFFFFFFFFFFFFFFFFFFFFFFFFFFFFFE8
S214405390FFFFFFFFFFFFFFFFFFFFFFFFFFFFFFFFD8
S2144053A0FFFFFFFFFFFFFFFFFFFFFFFFFFFFFFFFC8
S2144053B0FFFFFFFFFFFFFFFFFFFFFFFFFFFFFFFFB8
S2144053C0FFFFFFFF8C524000080000000D00000069
S2144053D008000000000000FFFFFFFFFFFFFFFFFF89
S2144053E0FFFFFFFFFFFF000000FFFFFFFFFFFF0084
S2144053F00000FFFFFFFFFFFFFFFFFF000000FFFF73
S214405400FFFFFFFFFFFFFF000000FFFFFFFFFFFF64
S214405410FFFFFF000000FFFFFFFFFFFFFFFFFFFF54
S214405420FFFF000000FFFFFF000000FFFFFFFFFF41
S214405430FFFFFFFFFFFFFFFFFFFF000000FFFFFF34
S214405440000000FFFFFFFFFFFFFFFFFFFFFFFFFF24
S214405450FFFFFFFFFF000000FFFFFFFFFFFFFFFF14
S214405460FFFFFFFFFFFFFFFFFFFFFFFFFF00000004
S214405470FFFFFFFFFFFFFFFFFFFFFFFFFFFFFFFFF7
S214405480FFFFFFFFFF000000FFFFFFFFFFFFFFFFE4
S214405490FFFFFFFFFFFFFFFFFFFFFFFFFF000000D4
S2144054A0FFFFFFFFFFFFFFFFFFFFFFFFFFFFFFFFC7
S2144054B0FFFFFFFFFF000000FFFFFFFFFFFFFFFFB4
S2144054C0FFFFFFFFFFFFFFFFFFFFFFFFFFFFFFFFA7
S2144054D0FFFFFFFFFFFFFFFFFFFFFFFFFFFFFFFF97
S2144054E0FFFFFFFFFFFFFFFFFFFFFFFFFFFFFFFF87
S2144054F0FFFFFFFFFFFFFFFFFFFFFFFFFFFFFFFF77
S214405500FFFFFFFFFFFFFFFFFFFFFFFFD4534000FB
S214405510080000000D000000080000000000000029
S2144055200000000000000000000000000000000036
S21440553000FFFFFFFFFFFFFFFFFFFFFFFFFFFFFF35
S214405540FFFFFFFFFFFF000000FFFFFFFFFFFFFF23
S214405550FFFFFFFFFFFFFFFFFFFFFF000000FFFF13
S214405560FFFFFFFFFFFFFFFFFFFFFFFFFFFFFFFF06
S214405570000000FFFFFFFFFFFFFFFFFFFFFFFFFFF3
S214405580FFFFFFFFFF000000FFFFFFFFFFFFFFFFE3
S214405590FFFFFFFFFFFFFFFFFFFFFFFFFF000000D3
S2144055A0FFFFFFFFFFFFFFFFFFFFFFFFFFFFFFFFC6
S2144055B0FFFF000000FFFFFFFFFFFFFFFFFFFFFFB3
S2144055C0FFFFFFFFFFFFFF000000FFFFFFFFFFFFA3
S2144055D0FFFFFFFFFFFFFFFFFFFFFFFF000000FF93
S2144055E0FFFFFFFFFFFFFFFFFFFFFFFFFFFFFFFF86
S2144055F0FFFFFFFF0000000000000000000000006A
S214405600000000000000000000FFFFFFFFFFFFFF5C
S214405610FFFFFFFFFFFFFFFFFFFFFFFFFFFFFFFF55
S214405620FFFFFFFFFFFFFFFFFFFFFFFFFFFFFFFF45
S214405630FFFFFFFFFFFFFFFFFFFFFFFFFFFFFFFF35
S214405640FFFFFFFFFFFFFFFFFFFFFFFFFFFFFFFF25
S214405650FFFFFFFF1C554000080000000D00000043
S2144056600800000041000000603440004200000096
S214405670A8354000430000001837400044000000B2
S214405680B038400045000000F839400046000000B1
S2144056901C3B4000470000008C3C40004800000097
S2144056A0FC3D400049000000A83E40004A00000083
S2144056B0A43F40004B000000EC4040004C0000007F
S2144056C0104240004D000000A84340004E0000003D
S2144056D0184540004F000000B04640005000000013
S2144056E0F84740005100000090494000520000003A
S2144056F0004B400053000000484C4000540000005F
S214405700904D400055000000004F400056000000FD
S21440571048504000570000007C52400058000000AF
S214405720C4534000590000000C5540005A00000089
S214405730545640001A00000064564000415A00008B
S214405740FFFFFFFFFFFFFFFFFFFFFFFFFFFFFFFF24
S214405750FFFFFFFFFFFFFFFFFFFFFFFFFFFFFFFF14
S214405760FFFFFFFFFFFFFFFFFFFFFFFFFFFFFFFF04
S214405770FFFFFFFFFFFFFFFFFFFFFFFFFFFFFFFFF4
S214405AB0FFFFFFFFFFFFFFFF4057400008000000CA
S214405AC02500000008000000FFFFFFFFFFFFFFFF6C
S214405AD0FFFFFFFFFFFFFFFFFFFFFFFFFFFFFFFF91
S214405AE0FFFFFFFFFFFFFFFFFFFFFFFFFFFFFFFF81
S214405AF0FFFFFFFFFFFFFFFFFFFFFFFFFFFFFFFF71
S214405B00FFFFFFFFFFFFFFFFFFFFFFFFFFFFFFFF60
S214405B10FFFFFFFFFFFFFFFFFFFFFFFFFFFFFFFF50
S214405B20FFFFFFFFFFFFFFFFFFFFFFFFFFFFFFFF40
S214405B30FFFFFFFFFFFFFFFFFFFFFFFFFFFFFFFF30
S214405B40FFFFFF000000000000000000FFFFFFFF17
S214405B50FFFFFFFFFFFFFFFFFFFFFFFFFFFFFFFF10
S214405B60FFFFFFFFFFFFFF000000000000000000F7
S214405B70FFFFFFFFFFFFFFFFFFFFFFFFFFFFFFFFF0
S214405B80FFFFFFFFFFFFFFFFFFFFFF0000000000DB
S214405B9000000000FFFFFFFFFFFFFFFFFFFFFFFFCC
S214405BA0FFFFFFFFFFFFFFFFFFFFFFFFFFFFFF00BF
S214405BB00000000000000000FFFFFFFFFFFFFFFFA8
S214405BC0FFFFFFFFFFFFFFFFFFFFFFFFFFFFFFFFA0
S214405BD0FFFFFF000000000000000000FFFFFFFF87
S214405BE0FFFFFFFFFFFFFFFFFFFFFFFFFFFFFFFF80
S214405BF0FFFFFFFFFFFFFF00000000000000000067
